{
  "address": "0xC7B003d590CF0ef2F02655e36E9BE98Aba7D8567",
  "abi": [
    {
      "inputs": [],
      "stateMutability": "nonpayable",
      "type": "constructor"
    },
    {
      "inputs": [
        {
          "internalType": "enum OrganizationType",
          "name": "organizationType",
          "type": "uint8"
        },
        {
          "internalType": "string",
          "name": "name",
          "type": "string"
        },
        {
          "internalType": "address",
          "name": "owner",
          "type": "address"
        }
      ],
      "name": "createOrganization",
      "outputs": [
        {
          "internalType": "address",
          "name": "",
          "type": "address"
        }
      ],
      "stateMutability": "nonpayable",
      "type": "function"
    },
    {
      "inputs": [],
      "name": "getDeployedOrgs",
      "outputs": [
        {
          "internalType": "address[]",
          "name": "",
          "type": "address[]"
        }
      ],
      "stateMutability": "view",
      "type": "function"
    },
    {
      "inputs": [],
      "name": "getPet",
      "outputs": [
        {
          "internalType": "address",
          "name": "",
          "type": "address"
        }
      ],
      "stateMutability": "view",
      "type": "function"
    },
    {
      "inputs": [],
      "name": "getRegistry",
      "outputs": [
        {
          "internalType": "address",
          "name": "",
          "type": "address"
        }
      ],
      "stateMutability": "view",
      "type": "function"
    },
    {
      "inputs": [
        {
          "internalType": "contract Pet",
          "name": "pet",
          "type": "address"
        }
      ],
      "name": "setPet",
      "outputs": [],
      "stateMutability": "nonpayable",
      "type": "function"
    },
    {
      "inputs": [
        {
          "internalType": "contract OrganizationRegistry",
          "name": "registry",
          "type": "address"
        }
      ],
      "name": "setRegistry",
      "outputs": [],
      "stateMutability": "nonpayable",
      "type": "function"
    }
  ],
  "transactionHash": "0x229fca46d847619956d04f383475093f2fa0eb7823ba6695a86acae4b6c31746",
  "args": [],
  "numDeployments": 1,
  "solcInputHash": "9eb1eb1576c3febb0022908b2a6ac730",
  "bytecode": "0x60a060405234801561001057600080fd5b50336080526080516114e5610037600039600081816102c4015261032e01526114e56000f3fe608060405234801561001057600080fd5b50600436106100625760003560e01c806352a1662a146100675780635ab1bd53146100975780638cf3375d146100a85780638eaa6597146100b95780639a9d0d68146100ce578063a91ee0dc146100e3575b600080fd5b61007a6100753660046103d8565b6100f6565b6040516001600160a01b0390911681526020015b60405180910390f35b6000546001600160a01b031661007a565b6001546001600160a01b031661007a565b6100c1610257565b60405161008e91906104b0565b6100e16100dc3660046104fd565b6102b9565b005b6100e16100f13660046104fd565b610323565b60008084600381111561010b5761010b61051a565b0361020e576001546040516000916001600160a01b031690849086906101309061038d565b61013c93929190610530565b604051809103906000f080158015610158573d6000803e3d6000fd5b5060005460405163242f800f60e21b81526001600160a01b0380841660048301529293509116906390be003c90602401600060405180830381600087803b1580156101a257600080fd5b505af11580156101b6573d6000803e3d6000fd5b5050600280546001810182556000919091527f405787fa12a823e0f2b7631cc41b3ba8828b3321ca811111fa75cd3aa3bb5ace0180546001600160a01b0319166001600160a01b038516179055509091506102509050565b60405162461bcd60e51b815260206004820152601260248201527113dc99c81d1e5c19481b9bdd08199bdd5b9960721b60448201526064015b60405180910390fd5b9392505050565b606060028054806020026020016040519081016040528092919081815260200182805480156102af57602002820191906000526020600020905b81546001600160a01b03168152600190910190602001808311610291575b5050505050905090565b336001600160a01b037f000000000000000000000000000000000000000000000000000000000000000016146103015760405162461bcd60e51b81526004016102479061059a565b600180546001600160a01b0319166001600160a01b0392909216919091179055565b336001600160a01b037f0000000000000000000000000000000000000000000000000000000000000000161461036b5760405162461bcd60e51b81526004016102479061059a565b600080546001600160a01b0319166001600160a01b0392909216919091179055565b610eca806105e683390190565b634e487b7160e01b600052604160045260246000fd5b6001600160a01b03811681146103c557600080fd5b50565b80356103d3816103b0565b919050565b6000806000606084860312156103ed57600080fd5b8335600481106103fc57600080fd5b9250602084013567ffffffffffffffff8082111561041957600080fd5b818601915086601f83011261042d57600080fd5b81358181111561043f5761043f61039a565b604051601f8201601f19908116603f011681019083821181831017156104675761046761039a565b8160405282815289602084870101111561048057600080fd5b8260208601602083013760006020848301015280965050505050506104a7604085016103c8565b90509250925092565b6020808252825182820181905260009190848201906040850190845b818110156104f15783516001600160a01b0316835292840192918401916001016104cc565b50909695505050505050565b60006020828403121561050f57600080fd5b8135610250816103b0565b634e487b7160e01b600052602160045260246000fd5b600060018060a01b038086168352602081861681850152606060408501528451915081606085015260005b828110156105775785810182015185820160800152810161055b565b50506000608082850101526080601f19601f830116840101915050949350505050565b6020808252602b908201527f54686973206d6574686f642063616e206f6e6c792062652063616c6c6564206260408201526a3c903a34329030b236b4b760a91b60608201526080019056fe60a06040523480156200001157600080fd5b5060405162000eca38038062000eca8339810160408190526200003491620000c0565b600180546001600160a01b0319166001600160a01b0384811691821783556000918252600260205260408220805460ff19169093179092559084166080528390839083906200008482826200024f565b505050505050506200031b565b6001600160a01b0381168114620000a757600080fd5b50565b634e487b7160e01b600052604160045260246000fd5b600080600060608486031215620000d657600080fd5b8351620000e38162000091565b80935050602080850151620000f88162000091565b60408601519093506001600160401b03808211156200011657600080fd5b818701915087601f8301126200012b57600080fd5b815181811115620001405762000140620000aa565b604051601f8201601f19908116603f011681019083821181831017156200016b576200016b620000aa565b816040528281528a868487010111156200018457600080fd5b600093505b82841015620001a8578484018601518185018701529285019262000189565b60008684830101528096505050505050509250925092565b600181811c90821680620001d557607f821691505b602082108103620001f657634e487b7160e01b600052602260045260246000fd5b50919050565b601f8211156200024a57600081815260208120601f850160051c81016020861015620002255750805b601f850160051c820191505b81811015620002465782815560010162000231565b5050505b505050565b81516001600160401b038111156200026b576200026b620000aa565b62000283816200027c8454620001c0565b84620001fc565b602080601f831160018114620002bb5760008415620002a25750858301515b600019600386901b1c1916600185901b17855562000246565b600085815260208120601f198616915b82811015620002ec57888601518255948401946001909101908401620002cb565b50858210156200030b5787850151600019600388901b60f8161c191681555b5050505050600190811b01905550565b608051610b776200035360003960008181610172015281816102940152818161036a01528181610523015261064c0152610b776000f3fe608060405234801561001057600080fd5b50600436106100a95760003560e01c8063d28d885211610071578063d28d885214610158578063d4f273d91461016d578063e1780503146101ac578063ea66543f146101cd578063f3cb8c31146101f9578063f731edb21461020c57600080fd5b8063150b7a02146100ae5780632f54bf6e146100eb5780634d8290481461011d5780637c41885614610132578063d108177a14610145575b600080fd5b6100cd6100bc36600461069e565b630a85bd0160e11b95945050505050565b6040516001600160e01b031990911681526020015b60405180910390f35b61010d6100f9366004610739565b6001546001600160a01b0390811691161490565b60405190151581526020016100e2565b61013061012b36600461075b565b61021f565b005b610130610140366004610817565b6102fe565b610130610153366004610739565b6103de565b610160610429565b6040516100e291906108bb565b6101947f000000000000000000000000000000000000000000000000000000000000000081565b6040516001600160a01b0390911681526020016100e2565b6101bf6101ba366004610739565b6104b7565b6040519081526020016100e2565b61010d6101db366004610739565b6001600160a01b031660009081526002602052604090205460ff1690565b610130610207366004610739565b6105a4565b61013061021a3660046108ce565b6105f2565b3360009081526002602052604090205460ff168061024757506001546001600160a01b031633145b61026c5760405162461bcd60e51b815260040161026390610941565b60405180910390fd5b60408051808201825230815233602082015290516359fa66f360e11b81526001600160a01b037f0000000000000000000000000000000000000000000000000000000000000000169163b3f4cde6916102c9918591600401610992565b600060405180830381600087803b1580156102e357600080fd5b505af11580156102f7573d6000803e3d6000fd5b5050505050565b3360009081526002602052604090205460ff168061032657506001546001600160a01b031633145b6103425760405162461bcd60e51b815260040161026390610941565b60408051808201825230815233602082015290516306d3452f60e21b81526001600160a01b037f00000000000000000000000000000000000000000000000000000000000000001691631b4d14bc916103a6919088908890889088906004016109bc565b600060405180830381600087803b1580156103c057600080fd5b505af11580156103d4573d6000803e3d6000fd5b5050505050505050565b6001546001600160a01b031633146104085760405162461bcd60e51b815260040161026390610a17565b6001600160a01b03166000908152600260205260409020805460ff19169055565b6000805461043690610a74565b80601f016020809104026020016040519081016040528092919081815260200182805461046290610a74565b80156104af5780601f10610484576101008083540402835291602001916104af565b820191906000526020600020905b81548152906001019060200180831161049257829003601f168201915b505050505081565b3360009081526002602052604081205460ff16806104df57506001546001600160a01b031633145b6104fb5760405162461bcd60e51b815260040161026390610941565b60408051808201825230815233602082015290516340adc64160e11b81526001600160a01b037f0000000000000000000000000000000000000000000000000000000000000000169163815b8c829161055991908690600401610aae565b6020604051808303816000875af1158015610578573d6000803e3d6000fd5b505050506040513d601f19601f8201168201806040525081019061059c9190610aea565b90505b919050565b6001546001600160a01b031633146105ce5760405162461bcd60e51b815260040161026390610a17565b6001600160a01b03166000908152600260205260409020805460ff19166001179055565b3360009081526002602052604090205460ff168061061a57506001546001600160a01b031633145b6106365760405162461bcd60e51b815260040161026390610941565b60405162f0463d60e61b81526001600160a01b037f00000000000000000000000000000000000000000000000000000000000000001690633c118f40906103a6908690889087908790600401610b03565b80356001600160a01b038116811461059f57600080fd5b6000806000806000608086880312156106b657600080fd5b6106bf86610687565b94506106cd60208701610687565b935060408601359250606086013567ffffffffffffffff808211156106f157600080fd5b818801915088601f83011261070557600080fd5b81358181111561071457600080fd5b89602082850101111561072657600080fd5b9699959850939650602001949392505050565b60006020828403121561074b57600080fd5b61075482610687565b9392505050565b60006020828403121561076d57600080fd5b5035919050565b634e487b7160e01b600052604160045260246000fd5b600082601f83011261079b57600080fd5b813567ffffffffffffffff808211156107b6576107b6610774565b604051601f8301601f19908116603f011681019082821181831017156107de576107de610774565b816040528381528660208588010111156107f757600080fd5b836020870160208301376000602085830101528094505050505092915050565b6000806000806080858703121561082d57600080fd5b61083685610687565b9350602085013567ffffffffffffffff81111561085257600080fd5b61085e8782880161078a565b949794965050505060408301359260600135919050565b6000815180845260005b8181101561089b5760208185018101518683018201520161087f565b506000602082860101526020601f19601f83011685010191505092915050565b6020815260006107546020830184610875565b600080600080608085870312156108e457600080fd5b843593506108f460208601610687565b9250604085013567ffffffffffffffff81111561091057600080fd5b61091c8782880161078a565b925050606085013563ffffffff8116811461093657600080fd5b939692955090935050565b60208082526031908201527f4d75737420626520616e20656d706c6f796565206f72206f776e657220746f206040820152703ab9b2903a3434b990333ab731ba34b7b760791b606082015260800190565b82815260608101610754602083018480516001600160a01b03908116835260209182015116910152565b6109dc818780516001600160a01b03908116835260209182015116910152565b6001600160a01b038516604082015260c060608201819052600090610a0390830186610875565b60808301949094525060a001529392505050565b6020808252603b908201527f4d75737420626520746865206f776e6572206f662074686973206f7267616e6960408201527f7a6174696f6e20746f2075736520746869732066756e6374696f6e0000000000606082015260800190565b600181811c90821680610a8857607f821691505b602082108103610aa857634e487b7160e01b600052602260045260246000fd5b50919050565b60608101610ad2828580516001600160a01b03908116835260209182015116910152565b6001600160a01b039290921660409190910152919050565b600060208284031215610afc57600080fd5b5051919050565b60018060a01b0385168152836020820152608060408201526000610b2a6080830185610875565b905063ffffffff831660608301529594505050505056fea2646970667358221220e6a44bc050a5f4f872d8013eb667a73e9d2eb6357e67874cc374d2d5a070cdc364736f6c63430008130033a2646970667358221220643606a2c4ba77d1b9eb15c387c88bfc8a944618b9e3f66d984e8107d5441e5464736f6c63430008130033",
  "devdoc": {
    "kind": "dev",
    "methods": {},
    "version": 1
  },
  "userdoc": {
    "kind": "user",
    "methods": {},
    "version": 1
  },
  "storageLayout": {
    "storage": [
      {
        "astId": 5049,
        "contract": "contracts/OrganizationFactory.sol:OrganizationFactory",
        "label": "_registry",
        "offset": 0,
        "slot": "0",
        "type": "t_contract(OrganizationRegistry)5361"
      },
      {
        "astId": 5052,
        "contract": "contracts/OrganizationFactory.sol:OrganizationFactory",
        "label": "_pet",
        "offset": 0,
        "slot": "1",
        "type": "t_contract(Pet)5757"
      },
      {
        "astId": 5057,
        "contract": "contracts/OrganizationFactory.sol:OrganizationFactory",
        "label": "_deployedOrganizations",
        "offset": 0,
        "slot": "2",
        "type": "t_array(t_address)dyn_storage"
      }
    ],
    "types": {
      "t_address": {
        "encoding": "inplace",
        "label": "address",
        "numberOfBytes": "20"
      },
      "t_array(t_address)dyn_storage": {
        "base": "t_address",
        "encoding": "dynamic_array",
        "label": "address[]",
        "numberOfBytes": "32"
      },
      "t_contract(OrganizationRegistry)5361": {
        "encoding": "inplace",
        "label": "contract OrganizationRegistry",
        "numberOfBytes": "20"
      },
      "t_contract(Pet)5757": {
        "encoding": "inplace",
        "label": "contract Pet",
        "numberOfBytes": "20"
      }
    }
  }
}