{
  "address": "0x5D03e190bbcD7F46B08a03e83845ABc3aFEc6bFB",
  "abi": [
    {
      "inputs": [
        {
          "internalType": "contract OrganizationRegistry",
          "name": "orgRegistry",
          "type": "address"
        },
        {
          "internalType": "address",
          "name": "functionRouter",
          "type": "address"
        },
        {
          "internalType": "string",
          "name": "calculationLogic",
          "type": "string"
        },
        {
          "internalType": "address",
          "name": "pawledgerAddress",
          "type": "address"
        }
      ],
      "stateMutability": "nonpayable",
      "type": "constructor"
    },
    {
      "anonymous": false,
      "inputs": [
        {
          "indexed": true,
          "internalType": "address",
          "name": "owner",
          "type": "address"
        },
        {
          "indexed": true,
          "internalType": "address",
          "name": "approved",
          "type": "address"
        },
        {
          "indexed": true,
          "internalType": "uint256",
          "name": "tokenId",
          "type": "uint256"
        }
      ],
      "name": "Approval",
      "type": "event"
    },
    {
      "anonymous": false,
      "inputs": [
        {
          "indexed": true,
          "internalType": "address",
          "name": "owner",
          "type": "address"
        },
        {
          "indexed": true,
          "internalType": "address",
          "name": "operator",
          "type": "address"
        },
        {
          "indexed": false,
          "internalType": "bool",
          "name": "approved",
          "type": "bool"
        }
      ],
      "name": "ApprovalForAll",
      "type": "event"
    },
    {
      "anonymous": false,
      "inputs": [
        {
          "indexed": false,
          "internalType": "uint256",
          "name": "tokenId",
          "type": "uint256"
        },
        {
          "indexed": false,
          "internalType": "address",
          "name": "orgAffiliation",
          "type": "address"
        },
        {
          "indexed": false,
          "internalType": "address",
          "name": "claimee",
          "type": "address"
        }
      ],
      "name": "FoundClaimMade",
      "type": "event"
    },
    {
      "anonymous": false,
      "inputs": [
        {
          "indexed": false,
          "internalType": "address",
          "name": "orgAffiliation",
          "type": "address"
        },
        {
          "indexed": false,
          "internalType": "address",
          "name": "claimee",
          "type": "address"
        },
        {
          "indexed": false,
          "internalType": "address",
          "name": "prtOwner",
          "type": "address"
        },
        {
          "indexed": false,
          "internalType": "string",
          "name": "medPayload",
          "type": "string"
        },
        {
          "indexed": false,
          "internalType": "uint256",
          "name": "tokenId",
          "type": "uint256"
        },
        {
          "indexed": false,
          "internalType": "bytes32",
          "name": "requestId",
          "type": "bytes32"
        }
      ],
      "name": "MedicalPayload",
      "type": "event"
    },
    {
      "anonymous": false,
      "inputs": [
        {
          "indexed": false,
          "internalType": "address",
          "name": "orgAffiliation",
          "type": "address"
        },
        {
          "indexed": false,
          "internalType": "address",
          "name": "claimee",
          "type": "address"
        },
        {
          "indexed": false,
          "internalType": "address",
          "name": "prospectOwner",
          "type": "address"
        }
      ],
      "name": "MintClaimMade",
      "type": "event"
    },
    {
      "anonymous": false,
      "inputs": [
        {
          "indexed": true,
          "internalType": "address",
          "name": "from",
          "type": "address"
        },
        {
          "indexed": true,
          "internalType": "address",
          "name": "to",
          "type": "address"
        },
        {
          "indexed": true,
          "internalType": "uint256",
          "name": "tokenId",
          "type": "uint256"
        }
      ],
      "name": "Transfer",
      "type": "event"
    },
    {
      "anonymous": false,
      "inputs": [
        {
          "indexed": true,
          "internalType": "bytes32",
          "name": "requestId",
          "type": "bytes32"
        },
        {
          "indexed": false,
          "internalType": "bytes",
          "name": "result",
          "type": "bytes"
        },
        {
          "indexed": false,
          "internalType": "bytes",
          "name": "err",
          "type": "bytes"
        }
      ],
      "name": "reEncryptResponse",
      "type": "event"
    },
    {
      "inputs": [],
      "name": "_decryptConsumer",
      "outputs": [
        {
          "internalType": "contract DecryptConsumer",
          "name": "",
          "type": "address"
        }
      ],
      "stateMutability": "view",
      "type": "function"
    },
    {
      "inputs": [
        {
          "internalType": "address",
          "name": "to",
          "type": "address"
        },
        {
          "internalType": "uint256",
          "name": "tokenId",
          "type": "uint256"
        },
        {
          "internalType": "string",
          "name": "transfereePublicKey",
          "type": "string"
        },
        {
          "internalType": "uint32",
          "name": "gasLimit",
          "type": "uint32"
        }
      ],
      "name": "adoptAnimal",
      "outputs": [],
      "stateMutability": "nonpayable",
      "type": "function"
    },
    {
      "inputs": [
        {
          "internalType": "address",
          "name": "to",
          "type": "address"
        },
        {
          "internalType": "uint256",
          "name": "tokenId",
          "type": "uint256"
        }
      ],
      "name": "approve",
      "outputs": [],
      "stateMutability": "nonpayable",
      "type": "function"
    },
    {
      "inputs": [
        {
          "internalType": "address",
          "name": "owner",
          "type": "address"
        }
      ],
      "name": "balanceOf",
      "outputs": [
        {
          "internalType": "uint256",
          "name": "",
          "type": "uint256"
        }
      ],
      "stateMutability": "view",
      "type": "function"
    },
    {
      "inputs": [
        {
          "internalType": "bytes32",
          "name": "requestId",
          "type": "bytes32"
        },
        {
          "internalType": "bytes",
          "name": "response",
          "type": "bytes"
        },
        {
          "internalType": "bytes",
          "name": "err",
          "type": "bytes"
        }
      ],
      "name": "eventsDecryted",
      "outputs": [],
      "stateMutability": "nonpayable",
      "type": "function"
    },
    {
      "inputs": [
        {
          "internalType": "uint256",
          "name": "tokenId",
          "type": "uint256"
        },
        {
          "components": [
            {
              "internalType": "address",
              "name": "org",
              "type": "address"
            },
            {
              "internalType": "address",
              "name": "claimee",
              "type": "address"
            }
          ],
          "internalType": "struct OrgAffilliation",
          "name": "orgAff",
          "type": "tuple"
        }
      ],
      "name": "foundPetClaim",
      "outputs": [],
      "stateMutability": "nonpayable",
      "type": "function"
    },
    {
      "inputs": [
        {
          "internalType": "uint256",
          "name": "tokenId",
          "type": "uint256"
        }
      ],
      "name": "getApproved",
      "outputs": [
        {
          "internalType": "address",
          "name": "",
          "type": "address"
        }
      ],
      "stateMutability": "view",
      "type": "function"
    },
    {
      "inputs": [],
      "name": "getDecryptContract",
      "outputs": [
        {
          "internalType": "contract DecryptConsumer",
          "name": "",
          "type": "address"
        }
      ],
      "stateMutability": "view",
      "type": "function"
    },
    {
      "inputs": [],
      "name": "getNextId",
      "outputs": [
        {
          "internalType": "uint256",
          "name": "",
          "type": "uint256"
        }
      ],
      "stateMutability": "view",
      "type": "function"
    },
    {
      "inputs": [
        {
          "internalType": "address",
          "name": "owner",
          "type": "address"
        },
        {
          "internalType": "address",
          "name": "operator",
          "type": "address"
        }
      ],
      "name": "isApprovedForAll",
      "outputs": [
        {
          "internalType": "bool",
          "name": "",
          "type": "bool"
        }
      ],
      "stateMutability": "view",
      "type": "function"
    },
    {
      "inputs": [
        {
          "components": [
            {
              "internalType": "address",
              "name": "org",
              "type": "address"
            },
            {
              "internalType": "address",
              "name": "claimee",
              "type": "address"
            }
          ],
          "internalType": "struct OrgAffilliation",
          "name": "orgAff",
          "type": "tuple"
        },
        {
          "internalType": "address",
          "name": "prospectOwner",
          "type": "address"
        }
      ],
      "name": "mint",
      "outputs": [
        {
          "internalType": "uint256",
          "name": "",
          "type": "uint256"
        }
      ],
      "stateMutability": "nonpayable",
      "type": "function"
    },
    {
      "inputs": [],
      "name": "name",
      "outputs": [
        {
          "internalType": "string",
          "name": "",
          "type": "string"
        }
      ],
      "stateMutability": "view",
      "type": "function"
    },
    {
      "inputs": [
        {
          "internalType": "uint256",
          "name": "tokenId",
          "type": "uint256"
        }
      ],
      "name": "ownerOf",
      "outputs": [
        {
          "internalType": "address",
          "name": "",
          "type": "address"
        }
      ],
      "stateMutability": "view",
      "type": "function"
    },
    {
      "inputs": [
        {
          "internalType": "uint256",
          "name": "tokenId",
          "type": "uint256"
        }
      ],
      "name": "rebukeClaim",
      "outputs": [],
      "stateMutability": "nonpayable",
      "type": "function"
    },
    {
      "inputs": [
        {
          "components": [
            {
              "internalType": "address",
              "name": "org",
              "type": "address"
            },
            {
              "internalType": "address",
              "name": "claimee",
              "type": "address"
            }
          ],
          "internalType": "struct OrgAffilliation",
          "name": "orgAff",
          "type": "tuple"
        },
        {
          "internalType": "address",
          "name": "petOwner",
          "type": "address"
        },
        {
          "internalType": "string",
          "name": "medPayload",
          "type": "string"
        },
        {
          "internalType": "uint256",
          "name": "tokenId",
          "type": "uint256"
        },
        {
          "internalType": "bytes32",
          "name": "requestId",
          "type": "bytes32"
        }
      ],
      "name": "receiveMedicalPayload",
      "outputs": [],
      "stateMutability": "nonpayable",
      "type": "function"
    },
    {
      "inputs": [
        {
          "internalType": "address",
          "name": "from",
          "type": "address"
        },
        {
          "internalType": "address",
          "name": "to",
          "type": "address"
        },
        {
          "internalType": "uint256",
          "name": "tokenId",
          "type": "uint256"
        }
      ],
      "name": "safeTransferFrom",
      "outputs": [],
      "stateMutability": "nonpayable",
      "type": "function"
    },
    {
      "inputs": [
        {
          "internalType": "address",
          "name": "from",
          "type": "address"
        },
        {
          "internalType": "address",
          "name": "to",
          "type": "address"
        },
        {
          "internalType": "uint256",
          "name": "tokenId",
          "type": "uint256"
        },
        {
          "internalType": "bytes",
          "name": "data",
          "type": "bytes"
        }
      ],
      "name": "safeTransferFrom",
      "outputs": [],
      "stateMutability": "nonpayable",
      "type": "function"
    },
    {
      "inputs": [
        {
          "internalType": "address",
          "name": "operator",
          "type": "address"
        },
        {
          "internalType": "bool",
          "name": "approved",
          "type": "bool"
        }
      ],
      "name": "setApprovalForAll",
      "outputs": [],
      "stateMutability": "nonpayable",
      "type": "function"
    },
    {
      "inputs": [
        {
          "internalType": "bytes4",
          "name": "interfaceId",
          "type": "bytes4"
        }
      ],
      "name": "supportsInterface",
      "outputs": [
        {
          "internalType": "bool",
          "name": "",
          "type": "bool"
        }
      ],
      "stateMutability": "view",
      "type": "function"
    },
    {
      "inputs": [],
      "name": "symbol",
      "outputs": [
        {
          "internalType": "string",
          "name": "",
          "type": "string"
        }
      ],
      "stateMutability": "view",
      "type": "function"
    },
    {
      "inputs": [
        {
          "internalType": "uint256",
          "name": "tokenId",
          "type": "uint256"
        }
      ],
      "name": "tokenURI",
      "outputs": [
        {
          "internalType": "string",
          "name": "",
          "type": "string"
        }
      ],
      "stateMutability": "view",
      "type": "function"
    },
    {
      "inputs": [
        {
          "internalType": "address",
          "name": "from",
          "type": "address"
        },
        {
          "internalType": "address",
          "name": "to",
          "type": "address"
        },
        {
          "internalType": "uint256",
          "name": "tokenId",
          "type": "uint256"
        }
      ],
      "name": "transferFrom",
      "outputs": [],
      "stateMutability": "nonpayable",
      "type": "function"
    },
    {
      "inputs": [
        {
          "internalType": "uint256",
          "name": "tokenId",
          "type": "uint256"
        },
        {
          "internalType": "address",
          "name": "claimee",
          "type": "address"
        }
      ],
      "name": "withdrawClaim",
      "outputs": [],
      "stateMutability": "nonpayable",
      "type": "function"
    }
  ],
  "transactionHash": "0x5dd7b2c4a19e6efbaee41a4a9a15d63947971b1079f1b17eb010b49f04e9009f",
  "args": [
    "0xC65e1cd48AfA1BC09C75A783848b6Fc4ec8e57CF",
    "0xC22a79eBA640940ABB6dF0f7982cc119578E11De",
    "const EthCrypto = await import('npm:eth-crypto');\nconst { v4: uuidv4 } = await import('npm:uuid')\n\nconst tokenId = args[0];\nconst transfereePublicKey = args[1];\nconst addressTo = args[2];\nconst pawledgerAddress = args[3];\n\nconst response = await Functions.makeHttpRequest({\n  url: `http://eus-pawledger-backend.azurewebsites.net/api/medicalHistories/token/${tokenId}/address/${pawledgerAddress}`,\n  method: \"GET\",\n  timeout: 10000\n});\n\nconst requestId = uuidv4();\nlet newEncryptedHistories = [];\nfor (let i = 0; i < response.data.length; i++) {\n  let oldEncryptedHistory = response.data[i].encryptedHistory;\n\n  const plaintextHistory = await EthCrypto.decryptWithPrivateKey(\n    secrets.privateKey, \n    JSON.parse(oldEncryptedHistory)\n  );\n\n  const newEncryptedHistory = await EthCrypto.encryptWithPublicKey(\n    transfereePublicKey, \n    plaintextHistory\n  );\n\n  const request = {\n    tokenId: tokenId,\n    encryptedHistory: newEncryptedHistory,\n    addressedTo: addressTo,\n    requestId: requestId\n  };\n\n  newEncryptedHistories.push(request);\n}\n\nawait Functions.makeHttpRequest({\n  url: `https://eus-pawledger-backend.azurewebsites.net/api/medicalHistories`,\n  method: \"PUT\",\n  headers: {\n    \"Content-Type\": \"application/json\",\n  },\n  data: newEncryptedHistories,\n  timeout: 10000\n});\n\nconst responsePayload = {\n  tokenId: tokenId,\n  requestId: requestId\n}\n\nreturn Functions.encodeString(true);",
    "0x2d72722533f7E0e58C4aAC8Ed37992b17DCF44c3"
  ],
  "numDeployments": 1,
  "solcInputHash": "33da7f8fdd9ef50834027c45e2300487",
  "bytecode": "0x60e06040523480156200001157600080fd5b5060405162003b2438038062003b2483398101604081905262000034916200016e565b6040518060400160405280600381526020016214195d60ea1b8152506040518060400160405280600381526020016214115560ea1b81525081600090816200007d9190620002f5565b5060016200008c8282620002f5565b5050506001600160a01b03808516608052811660c052604051839083903090620000b690620000f9565b620000c493929190620003c1565b604051809103906000f080158015620000e1573d6000803e3d6000fd5b506001600160a01b031660a052506200042892505050565b61149f806200268583390190565b6001600160a01b03811681146200011d57600080fd5b50565b80516200012d8162000107565b919050565b634e487b7160e01b600052604160045260246000fd5b60005b83811015620001655781810151838201526020016200014b565b50506000910152565b600080600080608085870312156200018557600080fd5b8451620001928162000107565b6020860151909450620001a58162000107565b60408601519093506001600160401b0380821115620001c357600080fd5b818701915087601f830112620001d857600080fd5b815181811115620001ed57620001ed62000132565b604051601f8201601f19908116603f0116810190838211818310171562000218576200021862000132565b816040528281528a60208487010111156200023257600080fd5b6200024583602083016020880162000148565b80965050505050506200025b6060860162000120565b905092959194509250565b600181811c908216806200027b57607f821691505b6020821081036200029c57634e487b7160e01b600052602260045260246000fd5b50919050565b601f821115620002f057600081815260208120601f850160051c81016020861015620002cb5750805b601f850160051c820191505b81811015620002ec57828155600101620002d7565b5050505b505050565b81516001600160401b0381111562000311576200031162000132565b620003298162000322845462000266565b84620002a2565b602080601f831160018114620003615760008415620003485750858301515b600019600386901b1c1916600185901b178555620002ec565b600085815260208120601f198616915b82811015620003925788860151825594840194600190910190840162000371565b5085821015620003b15787850151600019600388901b60f8161c191681555b5050505050600190811b01905550565b600060018060a01b0380861683527166756e2d706f6c79676f6e2d616d6f792d3160701b60208401526080604084015284518060808501526200040c8160a086016020890162000148565b9316606083015250601f91909101601f19160160a00192915050565b60805160a05160c0516122036200048260003960006108b90152600081816101e401528181610220015261091d01526000818161065b0152818161077e01528181610b1201528181610c510152610e5901526122036000f3fe608060405234801561001057600080fd5b506004361061014d5760003560e01c8063527b061c116100c3578063b3f4cde61161007c578063b3f4cde6146102f0578063b88d4fde14610303578063bc96832614610316578063c87b56dd1461031e578063ce4af83114610331578063e985e9c51461034457600080fd5b8063527b061c1461027b5780636352211e1461028e57806370a08231146102a1578063815b8c82146102c257806395d89b41146102d5578063a22cb465146102dd57600080fd5b806309699c411161011557806309699c41146101e25780631b4d14bc14610208578063218ecc4c1461021b57806323b872dd146102425780633c118f401461025557806342842e0e1461026857600080fd5b806301ffc9a71461015257806303167fd81461017a57806306fdde031461018f578063081812fc146101a4578063095ea7b3146101cf575b600080fd5b610165610160366004611939565b610380565b60405190151581526020015b60405180910390f35b61018d610188366004611956565b6103d2565b005b610197610478565b60405161017191906119bf565b6101b76101b2366004611956565b61050a565b6040516001600160a01b039091168152602001610171565b61018d6101dd3660046119ee565b610531565b7f00000000000000000000000000000000000000000000000000000000000000006101b7565b61018d610216366004611b19565b610646565b6101b77f000000000000000000000000000000000000000000000000000000000000000081565b61018d610250366004611b8a565b610738565b61018d610263366004611bc6565b610769565b61018d610276366004611b8a565b6109ba565b61018d610289366004611c39565b6109d5565b6101b761029c366004611956565b610a14565b6102b46102af366004611ca6565b610a74565b604051908152602001610171565b6102b46102d0366004611cc1565b610afa565b610197610c1e565b61018d6102eb366004611d03565b610c2d565b61018d6102fe366004611d3a565b610c3c565b61018d610311366004611d5e565b610d7d565b6006546102b4565b61019761032c366004611956565b610db5565b61018d61033f366004611dc6565b610e44565b610165610352366004611de9565b6001600160a01b03918216600090815260056020908152604080832093909416825291909152205460ff1690565b60006001600160e01b031982166380ac58cd60e01b14806103b157506001600160e01b03198216635b5e139f60e01b145b806103cc57506301ffc9a760e01b6001600160e01b03198316145b92915050565b336103dc82610a14565b6001600160a01b03161461044c5760405162461bcd60e51b815260206004820152602c60248201527f4f6e6c7920746865206f776e6572206f6620746865207065742063616e20726560448201526b62756b65206120636c61696d60a01b60648201526084015b60405180910390fd5b600090815260076020526040902080546001600160a01b03199081168255600190910180549091169055565b60606000805461048790611e13565b80601f01602080910402602001604051908101604052809291908181526020018280546104b390611e13565b80156105005780601f106104d557610100808354040283529160200191610500565b820191906000526020600020905b8154815290600101906020018083116104e357829003601f168201915b5050505050905090565b600061051582610f8f565b506000908152600460205260409020546001600160a01b031690565b600061053c82610a14565b9050806001600160a01b0316836001600160a01b0316036105a95760405162461bcd60e51b815260206004820152602160248201527f4552433732313a20617070726f76616c20746f2063757272656e74206f776e656044820152603960f91b6064820152608401610443565b336001600160a01b03821614806105c557506105c58133610352565b6106375760405162461bcd60e51b815260206004820152603d60248201527f4552433732313a20617070726f76652063616c6c6572206973206e6f7420746f60448201527f6b656e206f776e6572206f7220617070726f76656420666f7220616c6c0000006064820152608401610443565b6106418383610ff1565b505050565b604051630b91eaf960e01b81523360048201527f00000000000000000000000000000000000000000000000000000000000000006001600160a01b031690630b91eaf990602401602060405180830381865afa1580156106aa573d6000803e3d6000fd5b505050506040513d601f19601f820116820180604052508101906106ce9190611e4d565b6106ea5760405162461bcd60e51b815260040161044390611e6a565b845160208601516040517fa2f608b588ea5e98a768528465db3e15a1ee641fcd99e0de07e97675a226b53c926107299290918890889088908890611ed8565b60405180910390a15050505050565b610742338261105f565b61075e5760405162461bcd60e51b815260040161044390611f21565b6106418383836110de565b604051630b91eaf960e01b81523360048201527f00000000000000000000000000000000000000000000000000000000000000006001600160a01b031690630b91eaf990602401602060405180830381865afa1580156107cd573d6000803e3d6000fd5b505050506040513d601f19601f820116820180604052508101906107f19190611e4d565b61080d5760405162461bcd60e51b815260040161044390611e6a565b60408051600480825260a08201909252600091816020015b606081526020019060019003908161082557905050905061084584611242565b8160008151811061085857610858611f6e565b6020026020010181905250828160018151811061087757610877611f6e565b6020026020010181905250610896856001600160a01b031660146112d5565b816002815181106108a9576108a9611f6e565b60200260200101819052506108e87f00000000000000000000000000000000000000000000000000000000000000006001600160a01b031660146112d5565b816003815181106108fb576108fb611f6e565b60209081029190910101526040516317026d2b60e11b81526001600160a01b037f00000000000000000000000000000000000000000000000000000000000000001690632e04da56906109549084908690600401611f84565b6020604051808303816000875af1158015610973573d6000803e3d6000fd5b505050506040513d601f19601f820116820180604052508101906109979190611ff6565b506109b333868660405180602001604052806000815250611471565b5050505050565b61064183838360405180602001604052806000815250610d7d565b827f60c4b18e83b6f0d0ca77e3c2ebf445745a8978f83eb60feba61edba7ec45bc728383604051610a0792919061200f565b60405180910390a2505050565b6000818152600260205260408120546001600160a01b0316806103cc5760405162461bcd60e51b8152602060048201526018602482015277115490cdcc8c4e881a5b9d985b1a59081d1bdad95b88125160421b6044820152606401610443565b60006001600160a01b038216610ade5760405162461bcd60e51b815260206004820152602960248201527f4552433732313a2061646472657373207a65726f206973206e6f7420612076616044820152683634b21037bbb732b960b91b6064820152608401610443565b506001600160a01b031660009081526003602052604090205490565b604051630b91eaf960e01b81523360048201526000907f00000000000000000000000000000000000000000000000000000000000000006001600160a01b031690630b91eaf990602401602060405180830381865afa158015610b61573d6000803e3d6000fd5b505050506040513d601f19601f82011682018060405250810190610b859190611e4d565b610ba15760405162461bcd60e51b815260040161044390611e6a565b8251602080850151604080516001600160a01b0394851681529184169282019290925291841682820152517f434ca30d6535ee3e62fafdfb0997d39bd9df9de67201e6633167c3e5d2d5dbb09181900360600190a16006805460009182610c0783612053565b919050559050610c1783826114a4565b9392505050565b60606001805461048790611e13565b610c383383836114be565b5050565b604051630b91eaf960e01b81523360048201527f00000000000000000000000000000000000000000000000000000000000000006001600160a01b031690630b91eaf990602401602060405180830381865afa158015610ca0573d6000803e3d6000fd5b505050506040513d601f19601f82011682018060405250810190610cc49190611e4d565b610ce05760405162461bcd60e51b815260040161044390611e6a565b805160208201516040517f4ee171bc2a0548d324eb195b5c98f36737f5c0acb3fb7caaa422cc98c77f20a492610d2f928683526001600160a01b03918216602084015216604082015260600190565b60405180910390a16000918252600760209081526040909220815181546001600160a01b039182166001600160a01b0319918216178355929093015160019091018054919093169116179055565b610d87338361105f565b610da35760405162461bcd60e51b815260040161044390611f21565b610daf84848484611471565b50505050565b6060610dc082610f8f565b6000610df36040805180820190915260148152736d6574617365727669636520757269206865726560601b602082015290565b90506000815111610e135760405180602001604052806000815250610c17565b80610e1d84611242565b604051602001610e2e92919061206c565b6040516020818303038152906040529392505050565b604051630b91eaf960e01b81523360048201527f00000000000000000000000000000000000000000000000000000000000000006001600160a01b031690630b91eaf990602401602060405180830381865afa158015610ea8573d6000803e3d6000fd5b505050506040513d601f19601f82011682018060405250810190610ecc9190611e4d565b610ee85760405162461bcd60e51b815260040161044390611e6a565b6000828152600760205260409020600101546001600160a01b03828116911614610f625760405162461bcd60e51b815260206004820152602560248201527f4f6e6c792074686520636c61696d65652063616e207769746864726177206120604482015264636c61696d60d81b6064820152608401610443565b50600090815260076020526040902080546001600160a01b03199081168255600190910180549091169055565b6000818152600260205260409020546001600160a01b0316610fee5760405162461bcd60e51b8152602060048201526018602482015277115490cdcc8c4e881a5b9d985b1a59081d1bdad95b88125160421b6044820152606401610443565b50565b600081815260046020526040902080546001600160a01b0319166001600160a01b038416908117909155819061102682610a14565b6001600160a01b03167f8c5be1e5ebec7d5bd14f71427d1e84f3dd0314c0f7b2291e5b200ac8c7c3b92560405160405180910390a45050565b60008061106b83610a14565b9050806001600160a01b0316846001600160a01b031614806110b257506001600160a01b0380821660009081526005602090815260408083209388168352929052205460ff165b806110d65750836001600160a01b03166110cb8461050a565b6001600160a01b0316145b949350505050565b826001600160a01b03166110f182610a14565b6001600160a01b0316146111175760405162461bcd60e51b81526004016104439061209b565b6001600160a01b0382166111795760405162461bcd60e51b8152602060048201526024808201527f4552433732313a207472616e7366657220746f20746865207a65726f206164646044820152637265737360e01b6064820152608401610443565b826001600160a01b031661118c82610a14565b6001600160a01b0316146111b25760405162461bcd60e51b81526004016104439061209b565b600081815260046020908152604080832080546001600160a01b03199081169091556001600160a01b0387811680865260038552838620805460001901905590871680865283862080546001019055868652600290945282852080549092168417909155905184937fddf252ad1be2c89b69c2b068fc378daa952ba7f163c4a11628f55a4df523b3ef91a4505050565b6060600061124f8361158c565b600101905060008167ffffffffffffffff81111561126f5761126f611a18565b6040519080825280601f01601f191660200182016040528015611299576020820181803683370190505b5090508181016020015b600019016f181899199a1a9b1b9c1cb0b131b232b360811b600a86061a8153600a85049450846112a357509392505050565b606060006112e48360026120e0565b6112ef9060026120f7565b67ffffffffffffffff81111561130757611307611a18565b6040519080825280601f01601f191660200182016040528015611331576020820181803683370190505b509050600360fc1b8160008151811061134c5761134c611f6e565b60200101906001600160f81b031916908160001a905350600f60fb1b8160018151811061137b5761137b611f6e565b60200101906001600160f81b031916908160001a905350600061139f8460026120e0565b6113aa9060016120f7565b90505b6001811115611422576f181899199a1a9b1b9c1cb0b131b232b360811b85600f16601081106113de576113de611f6e565b1a60f81b8282815181106113f4576113f4611f6e565b60200101906001600160f81b031916908160001a90535060049490941c9361141b8161210a565b90506113ad565b508315610c175760405162461bcd60e51b815260206004820181905260248201527f537472696e67733a20686578206c656e67746820696e73756666696369656e746044820152606401610443565b61147c8484846110de565b61148884848484611664565b610daf5760405162461bcd60e51b815260040161044390612121565b610c38828260405180602001604052806000815250611765565b816001600160a01b0316836001600160a01b03160361151f5760405162461bcd60e51b815260206004820152601960248201527f4552433732313a20617070726f766520746f2063616c6c6572000000000000006044820152606401610443565b6001600160a01b03838116600081815260056020908152604080832094871680845294825291829020805460ff191686151590811790915591519182527f17307eab39ab6107e8899845ad3d59bd9653f200f220920489ca2b5937696c31910160405180910390a3505050565b60008072184f03e93ff9f4daa797ed6e38ed64bf6a1f0160401b83106115cb5772184f03e93ff9f4daa797ed6e38ed64bf6a1f0160401b830492506040015b6d04ee2d6d415b85acef810000000083106115f7576d04ee2d6d415b85acef8100000000830492506020015b662386f26fc10000831061161557662386f26fc10000830492506010015b6305f5e100831061162d576305f5e100830492506008015b612710831061164157612710830492506004015b60648310611653576064830492506002015b600a83106103cc5760010192915050565b60006001600160a01b0384163b1561175a57604051630a85bd0160e11b81526001600160a01b0385169063150b7a02906116a8903390899088908890600401612173565b6020604051808303816000875af19250505080156116e3575060408051601f3d908101601f191682019092526116e0918101906121b0565b60015b611740573d808015611711576040519150601f19603f3d011682016040523d82523d6000602084013e611716565b606091505b5080516000036117385760405162461bcd60e51b815260040161044390612121565b805181602001fd5b6001600160e01b031916630a85bd0160e11b1490506110d6565b506001949350505050565b61176f8383611798565b61177c6000848484611664565b6106415760405162461bcd60e51b815260040161044390612121565b6001600160a01b0382166117ee5760405162461bcd60e51b815260206004820181905260248201527f4552433732313a206d696e7420746f20746865207a65726f20616464726573736044820152606401610443565b6000818152600260205260409020546001600160a01b0316156118535760405162461bcd60e51b815260206004820152601c60248201527f4552433732313a20746f6b656e20616c7265616479206d696e746564000000006044820152606401610443565b6000818152600260205260409020546001600160a01b0316156118b85760405162461bcd60e51b815260206004820152601c60248201527f4552433732313a20746f6b656e20616c7265616479206d696e746564000000006044820152606401610443565b6001600160a01b038216600081815260036020908152604080832080546001019055848352600290915280822080546001600160a01b0319168417905551839291907fddf252ad1be2c89b69c2b068fc378daa952ba7f163c4a11628f55a4df523b3ef908290a45050565b6001600160e01b031981168114610fee57600080fd5b60006020828403121561194b57600080fd5b8135610c1781611923565b60006020828403121561196857600080fd5b5035919050565b60005b8381101561198a578181015183820152602001611972565b50506000910152565b600081518084526119ab81602086016020860161196f565b601f01601f19169290920160200192915050565b602081526000610c176020830184611993565b80356001600160a01b03811681146119e957600080fd5b919050565b60008060408385031215611a0157600080fd5b611a0a836119d2565b946020939093013593505050565b634e487b7160e01b600052604160045260246000fd5b600060408284031215611a4057600080fd5b6040516040810181811067ffffffffffffffff82111715611a6357611a63611a18565b604052905080611a72836119d2565b8152611a80602084016119d2565b60208201525092915050565b600082601f830112611a9d57600080fd5b813567ffffffffffffffff80821115611ab857611ab8611a18565b604051601f8301601f19908116603f01168101908282118183101715611ae057611ae0611a18565b81604052838152866020858801011115611af957600080fd5b836020870160208301376000602085830101528094505050505092915050565b600080600080600060c08688031215611b3157600080fd5b611b3b8787611a2e565b9450611b49604087016119d2565b9350606086013567ffffffffffffffff811115611b6557600080fd5b611b7188828901611a8c565b959894975094956080810135955060a001359392505050565b600080600060608486031215611b9f57600080fd5b611ba8846119d2565b9250611bb6602085016119d2565b9150604084013590509250925092565b60008060008060808587031215611bdc57600080fd5b611be5856119d2565b935060208501359250604085013567ffffffffffffffff811115611c0857600080fd5b611c1487828801611a8c565b925050606085013563ffffffff81168114611c2e57600080fd5b939692955090935050565b600080600060608486031215611c4e57600080fd5b83359250602084013567ffffffffffffffff80821115611c6d57600080fd5b611c7987838801611a8c565b93506040860135915080821115611c8f57600080fd5b50611c9c86828701611a8c565b9150509250925092565b600060208284031215611cb857600080fd5b610c17826119d2565b60008060608385031215611cd457600080fd5b611cde8484611a2e565b9150611cec604084016119d2565b90509250929050565b8015158114610fee57600080fd5b60008060408385031215611d1657600080fd5b611d1f836119d2565b91506020830135611d2f81611cf5565b809150509250929050565b60008060608385031215611d4d57600080fd5b82359150611cec8460208501611a2e565b60008060008060808587031215611d7457600080fd5b611d7d856119d2565b9350611d8b602086016119d2565b925060408501359150606085013567ffffffffffffffff811115611dae57600080fd5b611dba87828801611a8c565b91505092959194509250565b60008060408385031215611dd957600080fd5b82359150611cec602084016119d2565b60008060408385031215611dfc57600080fd5b611e05836119d2565b9150611cec602084016119d2565b600181811c90821680611e2757607f821691505b602082108103611e4757634e487b7160e01b600052602260045260246000fd5b50919050565b600060208284031215611e5f57600080fd5b8151610c1781611cf5565b60208082526048908201527f4f6e6c79206120726567697374657265642075736572206f6620612076616c6960408201527f6461746564206f7267616e697a6174696f6e2063616e20757365207468697320606082015267333ab731ba34b7b760c11b608082015260a00190565b6001600160a01b03878116825286811660208301528516604082015260c060608201819052600090611f0c90830186611993565b60808301949094525060a00152949350505050565b6020808252602d908201527f4552433732313a2063616c6c6572206973206e6f7420746f6b656e206f776e6560408201526c1c881bdc88185c1c1c9bdd9959609a1b606082015260800190565b634e487b7160e01b600052603260045260246000fd5b6000604082016040835280855180835260608501915060608160051b8601019250602080880160005b83811015611fdb57605f19888703018552611fc9868351611993565b95509382019390820190600101611fad565b505083945063ffffffff871681870152505050509392505050565b60006020828403121561200857600080fd5b5051919050565b6040815260006120226040830185611993565b82810360208401526120348185611993565b95945050505050565b634e487b7160e01b600052601160045260246000fd5b6000600182016120655761206561203d565b5060010190565b6000835161207e81846020880161196f565b83519083019061209281836020880161196f565b01949350505050565b60208082526025908201527f4552433732313a207472616e736665722066726f6d20696e636f72726563742060408201526437bbb732b960d91b606082015260800190565b80820281158282048414176103cc576103cc61203d565b808201808211156103cc576103cc61203d565b6000816121195761211961203d565b506000190190565b60208082526032908201527f4552433732313a207472616e7366657220746f206e6f6e20455243373231526560408201527131b2b4bb32b91034b6b83632b6b2b73a32b960711b606082015260800190565b6001600160a01b03858116825284166020820152604081018390526080606082018190526000906121a690830184611993565b9695505050505050565b6000602082840312156121c257600080fd5b8151610c178161192356fea26469706673582212201969d503f622ae481a7de9554c25a0cb354424c6b26265994cbc9ac7cd4be39564736f6c6343000813003360c06040523480156200001157600080fd5b506040516200149f3803806200149f8339810160408190526200003491620000ac565b6001600160a01b0384166080526001839055600062000054838262000242565b506001600160a01b031660a052506200030e915050565b6001600160a01b03811681146200008157600080fd5b50565b634e487b7160e01b600052604160045260246000fd5b8051620000a7816200006b565b919050565b60008060008060808587031215620000c357600080fd5b8451620000d0816200006b565b60208681015160408801519296509450906001600160401b0380821115620000f757600080fd5b818801915088601f8301126200010c57600080fd5b81518181111562000121576200012162000084565b604051601f8201601f19908116603f011681019083821181831017156200014c576200014c62000084565b816040528281528b868487010111156200016557600080fd5b600093505b828410156200018957848401860151818501870152928501926200016a565b6000868483010152809750505050505050620001a8606086016200009a565b905092959194509250565b600181811c90821680620001c857607f821691505b602082108103620001e957634e487b7160e01b600052602260045260246000fd5b50919050565b601f8211156200023d57600081815260208120601f850160051c81016020861015620002185750805b601f850160051c820191505b81811015620002395782815560010162000224565b5050505b505050565b81516001600160401b038111156200025e576200025e62000084565b62000276816200026f8454620001b3565b84620001ef565b602080601f831160018114620002ae5760008415620002955750858301515b600019600386901b1c1916600185901b17855562000239565b600085815260208120601f198616915b82811015620002df57888601518255948401946001909101908401620002be565b5085821015620002fe5787850151600019600388901b60f8161c191681555b5050505050600190811b01905550565b60805160a0516111656200033a6000396000610233015260008181608001526106be01526111656000f3fe608060405234801561001057600080fd5b50600436106100365760003560e01c80630ca761751461003b5780632e04da5614610050575b600080fd5b61004e610049366004610cff565b610075565b005b61006361005e366004610d84565b6100f9565b60405190815260200160405180910390f35b336001600160a01b037f000000000000000000000000000000000000000000000000000000000000000016146100be5760405163c6829f8360e01b815260040160405180910390fd5b6100c983838361021c565b60405183907f85e1543bf2f84fe80c6badbce3648c8539ad1df4d2b3d822938ca0538be727e690600090a2505050565b600061013c6040805160e0810190915280600081526020016000815260200160008152602001606081526020016060815260200160608152602001606081525090565b6101de6000806000805461014f90610e6e565b80601f016020809104026020016040519081016040528092919081815260200182805461017b90610e6e565b80156101c85780601f1061019d576101008083540402835291602001916101c8565b820191906000526020600020905b8154815290600101906020018083116101ab57829003601f168201915b5050505050846102a3909392919063ffffffff16565b6101ee81600063665505f0610321565b6101f881856103b7565b6000610211610206836103e1565b60e7866001546106b9565b925050505b92915050565b60405163149ec18760e21b81526001600160a01b037f0000000000000000000000000000000000000000000000000000000000000000169063527b061c9061026c90869086908690600401610eee565b600060405180830381600087803b15801561028657600080fd5b505af115801561029a573d6000803e3d6000fd5b50505050505050565b80516000036102c5576040516322ce3edd60e01b815260040160405180910390fd5b838360028111156102d8576102d8610f23565b908160028111156102eb576102eb610f23565b9052506040840182801561030157610301610f23565b9081801561031157610311610f23565b9052506060909301929092525050565b600061032e61010061078b565b9050610361604051806040016040528060068152602001651cdb1bdd125160d21b815250826107ac90919063ffffffff16565b61036e8160ff85166107ca565b6040805180820190915260078152663b32b939b4b7b760c91b60208201526103979082906107ac565b6103a181836107ca565b6002602085015251516080909301929092525050565b80516000036103d95760405163fe936cb760e01b815260040160405180910390fd5b60a090910152565b606060006103f061010061078b565b90506104296040518060400160405280600c81526020016b31b7b232a637b1b0ba34b7b760a11b815250826107ac90919063ffffffff16565b825161044790600281111561044057610440610f23565b82906107da565b6040805180820190915260088152676c616e677561676560c01b60208201526104719082906107ac565b604083015161048890801561044057610440610f23565b604080518082019091526006815265736f7572636560d01b60208201526104b09082906107ac565b60608301516104c09082906107ac565b60a08301515115610554576040805180820190915260048152636172677360e01b60208201526104f19082906107ac565b6104fa81610813565b60005b8360a001515181101561054a5761053a8460a00151828151811061052357610523610f39565b6020026020010151836107ac90919063ffffffff16565b61054381610f65565b90506104fd565b5061055481610837565b608083015151156106185760008360200151600281111561057757610577610f23565b036105955760405163a80d31f760e01b815260040160405180910390fd5b60408051808201909152600f81526e39b2b1b932ba39a637b1b0ba34b7b760891b60208201526105c69082906107ac565b6105df8360200151600281111561044057610440610f23565b6040805180820190915260078152667365637265747360c81b60208201526106089082906107ac565b6080830151610618908290610855565b60c083015151156106b15760408051808201909152600981526862797465734172677360b81b602082015261064e9082906107ac565b61065781610813565b60005b8360c00151518110156106a7576106978460c00151828151811061068057610680610f39565b60200260200101518361085590919063ffffffff16565b6106a081610f65565b905061065a565b506106b181610837565b515192915050565b6000807f00000000000000000000000000000000000000000000000000000000000000006001600160a01b031663461d27628688600188886040518663ffffffff1660e01b8152600401610711959493929190610f7e565b6020604051808303816000875af1158015610730573d6000803e3d6000fd5b505050506040513d601f19601f820116820180604052508101906107549190610fc7565b60405190915081907f1131472297a800fee664d1d89cfa8f7676ff07189ecc53f80bbb5f4969099db890600090a295945050505050565b610793610c0d565b805161079f9083610862565b5060006020820152919050565b6107b982600383516108d9565b81516107c590826109f8565b505050565b6107d6826000836108d9565b5050565b81516107e79060c2610a20565b506107d682826040516020016107ff91815260200190565b604051602081830303815290604052610855565b61081e816004610a89565b6001816020018181516108319190610fe0565b90525050565b610842816007610a89565b6001816020018181516108319190610ff3565b6107b982600283516108d9565b604080518082019091526060815260006020820152610882602083611006565b156108aa57610892602083611006565b61089d906020610ff3565b6108a79083610fe0565b91505b6020808401839052604051808552600081529081840101818110156108ce57600080fd5b604052509192915050565b6017816001600160401b0316116109055782516108ff9060e0600585901b168317610a20565b50505050565b60ff816001600160401b03161161094557825161092d906018611fe0600586901b1617610a20565b5082516108ff906001600160401b0383166001610aa0565b61ffff816001600160401b03161161098657825161096e906019611fe0600586901b1617610a20565b5082516108ff906001600160401b0383166002610aa0565b63ffffffff816001600160401b0316116109c95782516109b190601a611fe0600586901b1617610a20565b5082516108ff906001600160401b0383166004610aa0565b82516109e090601b611fe0600586901b1617610a20565b5082516108ff906001600160401b0383166008610aa0565b604080518082019091526060815260006020820152610a1983838451610b25565b9392505050565b6040805180820190915260608152600060208201528251516000610a45826001610fe0565b905084602001518210610a6657610a6685610a61836002611028565b610bf6565b8451602083820101858153508051821115610a7f578181525b5093949350505050565b81516107c590601f611fe0600585901b1617610a20565b6040805180820190915260608152600060208201528351516000610ac48285610fe0565b90508560200151811115610ae157610ae186610a61836002611028565b60006001610af186610100611123565b610afb9190610ff3565b90508651828101878319825116178152508051831115610b19578281525b50959695505050505050565b6040805180820190915260608152600060208201528251821115610b4857600080fd5b8351516000610b578483610fe0565b90508560200151811115610b7457610b7486610a61836002611028565b855180518382016020019160009180851115610b8e578482525b505050602086015b60208610610bce5780518252610bad602083610fe0565b9150610bba602082610fe0565b9050610bc7602087610ff3565b9550610b96565b51815160001960208890036101000a0190811690199190911617905250849150509392505050565b8151610c028383610862565b506108ff83826109f8565b6040518060400160405280610c35604051806040016040528060608152602001600081525090565b8152602001600081525090565b634e487b7160e01b600052604160045260246000fd5b604051601f8201601f191681016001600160401b0381118282101715610c8057610c80610c42565b604052919050565b60006001600160401b03831115610ca157610ca1610c42565b610cb4601f8401601f1916602001610c58565b9050828152838383011115610cc857600080fd5b828260208301376000602084830101529392505050565b600082601f830112610cf057600080fd5b610a1983833560208501610c88565b600080600060608486031215610d1457600080fd5b8335925060208401356001600160401b0380821115610d3257600080fd5b610d3e87838801610cdf565b93506040860135915080821115610d5457600080fd5b50610d6186828701610cdf565b9150509250925092565b803563ffffffff81168114610d7f57600080fd5b919050565b6000806040808486031215610d9857600080fd5b83356001600160401b0380821115610daf57600080fd5b818601915086601f830112610dc357600080fd5b8135602082821115610dd757610dd7610c42565b8160051b610de6828201610c58565b928352848101820192828101908b851115610e0057600080fd5b83870192505b84831015610e5057823586811115610e1e5760008081fd5b8701603f81018d13610e305760008081fd5b610e408d868301358b8401610c88565b8352509183019190830190610e06565b9850610e60915050888201610d6b565b955050505050509250929050565b600181811c90821680610e8257607f821691505b602082108103610ea257634e487b7160e01b600052602260045260246000fd5b50919050565b6000815180845260005b81811015610ece57602081850181015186830182015201610eb2565b506000602082860101526020601f19601f83011685010191505092915050565b838152606060208201526000610f076060830185610ea8565b8281036040840152610f198185610ea8565b9695505050505050565b634e487b7160e01b600052602160045260246000fd5b634e487b7160e01b600052603260045260246000fd5b634e487b7160e01b600052601160045260246000fd5b600060018201610f7757610f77610f4f565b5060010190565b6001600160401b038616815260a060208201526000610fa060a0830187610ea8565b61ffff9590951660408301525063ffffffff92909216606083015260809091015292915050565b600060208284031215610fd957600080fd5b5051919050565b8082018082111561021657610216610f4f565b8181038181111561021657610216610f4f565b60008261102357634e487b7160e01b600052601260045260246000fd5b500690565b808202811582820484141761021657610216610f4f565b600181815b8085111561107a57816000190482111561106057611060610f4f565b8085161561106d57918102915b93841c9390800290611044565b509250929050565b60008261109157506001610216565b8161109e57506000610216565b81600181146110b457600281146110be576110da565b6001915050610216565b60ff8411156110cf576110cf610f4f565b50506001821b610216565b5060208310610133831016604e8410600b84101617156110fd575081810a610216565b611107838361103f565b806000190482111561111b5761111b610f4f565b029392505050565b6000610a19838361108256fea2646970667358221220d3cc5f559f609910a9f6404b6577be13cb9ed84fd13ba88cd7ba071c48a7064464736f6c63430008130033",
  "devdoc": {
    "events": {
      "Approval(address,address,uint256)": {
        "details": "Emitted when `owner` enables `approved` to manage the `tokenId` token."
      },
      "ApprovalForAll(address,address,bool)": {
        "details": "Emitted when `owner` enables or disables (`approved`) `operator` to manage all of its assets."
      },
      "Transfer(address,address,uint256)": {
        "details": "Emitted when `tokenId` token is transferred from `from` to `to`."
      }
    },
    "kind": "dev",
    "methods": {
      "approve(address,uint256)": {
        "details": "See {IERC721-approve}."
      },
      "balanceOf(address)": {
        "details": "See {IERC721-balanceOf}."
      },
      "getApproved(uint256)": {
        "details": "See {IERC721-getApproved}."
      },
      "isApprovedForAll(address,address)": {
        "details": "See {IERC721-isApprovedForAll}."
      },
      "name()": {
        "details": "See {IERC721Metadata-name}."
      },
      "ownerOf(uint256)": {
        "details": "See {IERC721-ownerOf}."
      },
      "safeTransferFrom(address,address,uint256)": {
        "details": "See {IERC721-safeTransferFrom}."
      },
      "safeTransferFrom(address,address,uint256,bytes)": {
        "details": "See {IERC721-safeTransferFrom}."
      },
      "setApprovalForAll(address,bool)": {
        "details": "See {IERC721-setApprovalForAll}."
      },
      "supportsInterface(bytes4)": {
        "details": "See {IERC165-supportsInterface}."
      },
      "symbol()": {
        "details": "See {IERC721Metadata-symbol}."
      },
      "tokenURI(uint256)": {
        "details": "See {IERC721Metadata-tokenURI}."
      },
      "transferFrom(address,address,uint256)": {
        "details": "See {IERC721-transferFrom}."
      }
    },
    "version": 1
  },
  "userdoc": {
    "kind": "user",
    "methods": {},
    "version": 1
  },
  "storageLayout": {
    "storage": [
      {
        "astId": 2092,
        "contract": "contracts/Pet.sol:Pet",
        "label": "_name",
        "offset": 0,
        "slot": "0",
        "type": "t_string_storage"
      },
      {
        "astId": 2094,
        "contract": "contracts/Pet.sol:Pet",
        "label": "_symbol",
        "offset": 0,
        "slot": "1",
        "type": "t_string_storage"
      },
      {
        "astId": 2098,
        "contract": "contracts/Pet.sol:Pet",
        "label": "_owners",
        "offset": 0,
        "slot": "2",
        "type": "t_mapping(t_uint256,t_address)"
      },
      {
        "astId": 2102,
        "contract": "contracts/Pet.sol:Pet",
        "label": "_balances",
        "offset": 0,
        "slot": "3",
        "type": "t_mapping(t_address,t_uint256)"
      },
      {
        "astId": 2106,
        "contract": "contracts/Pet.sol:Pet",
        "label": "_tokenApprovals",
        "offset": 0,
        "slot": "4",
        "type": "t_mapping(t_uint256,t_address)"
      },
      {
        "astId": 2112,
        "contract": "contracts/Pet.sol:Pet",
        "label": "_operatorApprovals",
        "offset": 0,
        "slot": "5",
        "type": "t_mapping(t_address,t_mapping(t_address,t_bool))"
      },
      {
        "astId": 5390,
        "contract": "contracts/Pet.sol:Pet",
        "label": "_nextTokenId",
        "offset": 0,
        "slot": "6",
        "type": "t_uint256"
      },
      {
        "astId": 5403,
        "contract": "contracts/Pet.sol:Pet",
        "label": "_foundClaimMap",
        "offset": 0,
        "slot": "7",
        "type": "t_mapping(t_uint256,t_struct(OrgAffilliation)5882_storage)"
      }
    ],
    "types": {
      "t_address": {
        "encoding": "inplace",
        "label": "address",
        "numberOfBytes": "20"
      },
      "t_bool": {
        "encoding": "inplace",
        "label": "bool",
        "numberOfBytes": "1"
      },
      "t_mapping(t_address,t_bool)": {
        "encoding": "mapping",
        "key": "t_address",
        "label": "mapping(address => bool)",
        "numberOfBytes": "32",
        "value": "t_bool"
      },
      "t_mapping(t_address,t_mapping(t_address,t_bool))": {
        "encoding": "mapping",
        "key": "t_address",
        "label": "mapping(address => mapping(address => bool))",
        "numberOfBytes": "32",
        "value": "t_mapping(t_address,t_bool)"
      },
      "t_mapping(t_address,t_uint256)": {
        "encoding": "mapping",
        "key": "t_address",
        "label": "mapping(address => uint256)",
        "numberOfBytes": "32",
        "value": "t_uint256"
      },
      "t_mapping(t_uint256,t_address)": {
        "encoding": "mapping",
        "key": "t_uint256",
        "label": "mapping(uint256 => address)",
        "numberOfBytes": "32",
        "value": "t_address"
      },
      "t_mapping(t_uint256,t_struct(OrgAffilliation)5882_storage)": {
        "encoding": "mapping",
        "key": "t_uint256",
        "label": "mapping(uint256 => struct OrgAffilliation)",
        "numberOfBytes": "32",
        "value": "t_struct(OrgAffilliation)5882_storage"
      },
      "t_string_storage": {
        "encoding": "bytes",
        "label": "string",
        "numberOfBytes": "32"
      },
      "t_struct(OrgAffilliation)5882_storage": {
        "encoding": "inplace",
        "label": "struct OrgAffilliation",
        "members": [
          {
            "astId": 5879,
            "contract": "contracts/Pet.sol:Pet",
            "label": "org",
            "offset": 0,
            "slot": "0",
            "type": "t_address"
          },
          {
            "astId": 5881,
            "contract": "contracts/Pet.sol:Pet",
            "label": "claimee",
            "offset": 0,
            "slot": "1",
            "type": "t_address"
          }
        ],
        "numberOfBytes": "64"
      },
      "t_uint256": {
        "encoding": "inplace",
        "label": "uint256",
        "numberOfBytes": "32"
      }
    }
  }
}