{
  "address": "0xD196F7a59215fb3d24A303802f5f649F717d85Ff",
  "abi": [
    {
      "inputs": [
        {
          "internalType": "contract OrganizationRegistry",
          "name": "orgRegistry",
          "type": "address"
        },
        {
          "internalType": "address",
          "name": "functionRouter",
          "type": "address"
        },
        {
          "internalType": "string",
          "name": "calculationLogic",
          "type": "string"
        }
      ],
      "stateMutability": "nonpayable",
      "type": "constructor"
    },
    {
      "anonymous": false,
      "inputs": [
        {
          "indexed": true,
          "internalType": "address",
          "name": "owner",
          "type": "address"
        },
        {
          "indexed": true,
          "internalType": "address",
          "name": "approved",
          "type": "address"
        },
        {
          "indexed": true,
          "internalType": "uint256",
          "name": "tokenId",
          "type": "uint256"
        }
      ],
      "name": "Approval",
      "type": "event"
    },
    {
      "anonymous": false,
      "inputs": [
        {
          "indexed": true,
          "internalType": "address",
          "name": "owner",
          "type": "address"
        },
        {
          "indexed": true,
          "internalType": "address",
          "name": "operator",
          "type": "address"
        },
        {
          "indexed": false,
          "internalType": "bool",
          "name": "approved",
          "type": "bool"
        }
      ],
      "name": "ApprovalForAll",
      "type": "event"
    },
    {
      "anonymous": false,
      "inputs": [
        {
          "indexed": false,
          "internalType": "uint256",
          "name": "tokenId",
          "type": "uint256"
        },
        {
          "indexed": false,
          "internalType": "address",
          "name": "orgAffiliation",
          "type": "address"
        },
        {
          "indexed": false,
          "internalType": "address",
          "name": "claimee",
          "type": "address"
        }
      ],
      "name": "FoundClaimMade",
      "type": "event"
    },
    {
      "anonymous": false,
      "inputs": [
        {
          "indexed": false,
          "internalType": "address",
          "name": "orgAffiliation",
          "type": "address"
        },
        {
          "indexed": false,
          "internalType": "address",
          "name": "claimee",
          "type": "address"
        },
        {
          "indexed": false,
          "internalType": "address",
          "name": "prtOwner",
          "type": "address"
        },
        {
          "indexed": false,
          "internalType": "string",
          "name": "medPayload",
          "type": "string"
        }
      ],
      "name": "MedicalPayload",
      "type": "event"
    },
    {
      "anonymous": false,
      "inputs": [
        {
          "indexed": false,
          "internalType": "address",
          "name": "orgAffiliation",
          "type": "address"
        },
        {
          "indexed": false,
          "internalType": "address",
          "name": "claimee",
          "type": "address"
        },
        {
          "indexed": false,
          "internalType": "address",
          "name": "prospectOwner",
          "type": "address"
        }
      ],
      "name": "MintClaimMade",
      "type": "event"
    },
    {
      "anonymous": false,
      "inputs": [
        {
          "indexed": true,
          "internalType": "address",
          "name": "from",
          "type": "address"
        },
        {
          "indexed": true,
          "internalType": "address",
          "name": "to",
          "type": "address"
        },
        {
          "indexed": true,
          "internalType": "uint256",
          "name": "tokenId",
          "type": "uint256"
        }
      ],
      "name": "Transfer",
      "type": "event"
    },
    {
      "anonymous": false,
      "inputs": [
        {
          "indexed": true,
          "internalType": "bytes32",
          "name": "requestId",
          "type": "bytes32"
        },
        {
          "indexed": false,
          "internalType": "bytes",
          "name": "result",
          "type": "bytes"
        },
        {
          "indexed": false,
          "internalType": "bytes",
          "name": "err",
          "type": "bytes"
        }
      ],
      "name": "reEncryptResponse",
      "type": "event"
    },
    {
      "inputs": [],
      "name": "_decryptConsumer",
      "outputs": [
        {
          "internalType": "contract DecryptConsumer",
          "name": "",
          "type": "address"
        }
      ],
      "stateMutability": "view",
      "type": "function"
    },
    {
      "inputs": [
        {
          "internalType": "address",
          "name": "to",
          "type": "address"
        },
        {
          "internalType": "uint256",
          "name": "tokenId",
          "type": "uint256"
        },
        {
          "internalType": "string",
          "name": "transfereePublicKey",
          "type": "string"
        },
        {
          "internalType": "uint32",
          "name": "gasLimit",
          "type": "uint32"
        }
      ],
      "name": "adoptAnimal",
      "outputs": [],
      "stateMutability": "nonpayable",
      "type": "function"
    },
    {
      "inputs": [
        {
          "internalType": "address",
          "name": "to",
          "type": "address"
        },
        {
          "internalType": "uint256",
          "name": "tokenId",
          "type": "uint256"
        }
      ],
      "name": "approve",
      "outputs": [],
      "stateMutability": "nonpayable",
      "type": "function"
    },
    {
      "inputs": [
        {
          "internalType": "address",
          "name": "owner",
          "type": "address"
        }
      ],
      "name": "balanceOf",
      "outputs": [
        {
          "internalType": "uint256",
          "name": "",
          "type": "uint256"
        }
      ],
      "stateMutability": "view",
      "type": "function"
    },
    {
      "inputs": [
        {
          "internalType": "bytes32",
          "name": "requestId",
          "type": "bytes32"
        },
        {
          "internalType": "bytes",
          "name": "response",
          "type": "bytes"
        },
        {
          "internalType": "bytes",
          "name": "err",
          "type": "bytes"
        }
      ],
      "name": "eventsDecryted",
      "outputs": [],
      "stateMutability": "nonpayable",
      "type": "function"
    },
    {
      "inputs": [
        {
          "internalType": "uint256",
          "name": "tokenId",
          "type": "uint256"
        },
        {
          "components": [
            {
              "internalType": "address",
              "name": "org",
              "type": "address"
            },
            {
              "internalType": "address",
              "name": "claimee",
              "type": "address"
            }
          ],
          "internalType": "struct OrgAffilliation",
          "name": "orgAff",
          "type": "tuple"
        }
      ],
      "name": "foundPetClaim",
      "outputs": [],
      "stateMutability": "nonpayable",
      "type": "function"
    },
    {
      "inputs": [
        {
          "internalType": "uint256",
          "name": "tokenId",
          "type": "uint256"
        }
      ],
      "name": "getApproved",
      "outputs": [
        {
          "internalType": "address",
          "name": "",
          "type": "address"
        }
      ],
      "stateMutability": "view",
      "type": "function"
    },
    {
      "inputs": [],
      "name": "getDecryptContract",
      "outputs": [
        {
          "internalType": "contract DecryptConsumer",
          "name": "",
          "type": "address"
        }
      ],
      "stateMutability": "view",
      "type": "function"
    },
    {
      "inputs": [],
      "name": "getNextId",
      "outputs": [
        {
          "internalType": "uint256",
          "name": "",
          "type": "uint256"
        }
      ],
      "stateMutability": "view",
      "type": "function"
    },
    {
      "inputs": [
        {
          "internalType": "address",
          "name": "owner",
          "type": "address"
        },
        {
          "internalType": "address",
          "name": "operator",
          "type": "address"
        }
      ],
      "name": "isApprovedForAll",
      "outputs": [
        {
          "internalType": "bool",
          "name": "",
          "type": "bool"
        }
      ],
      "stateMutability": "view",
      "type": "function"
    },
    {
      "inputs": [
        {
          "components": [
            {
              "internalType": "address",
              "name": "org",
              "type": "address"
            },
            {
              "internalType": "address",
              "name": "claimee",
              "type": "address"
            }
          ],
          "internalType": "struct OrgAffilliation",
          "name": "orgAff",
          "type": "tuple"
        },
        {
          "internalType": "address",
          "name": "prospectOwner",
          "type": "address"
        }
      ],
      "name": "mint",
      "outputs": [
        {
          "internalType": "uint256",
          "name": "",
          "type": "uint256"
        }
      ],
      "stateMutability": "nonpayable",
      "type": "function"
    },
    {
      "inputs": [],
      "name": "name",
      "outputs": [
        {
          "internalType": "string",
          "name": "",
          "type": "string"
        }
      ],
      "stateMutability": "view",
      "type": "function"
    },
    {
      "inputs": [
        {
          "internalType": "uint256",
          "name": "tokenId",
          "type": "uint256"
        }
      ],
      "name": "ownerOf",
      "outputs": [
        {
          "internalType": "address",
          "name": "",
          "type": "address"
        }
      ],
      "stateMutability": "view",
      "type": "function"
    },
    {
      "inputs": [
        {
          "internalType": "uint256",
          "name": "tokenId",
          "type": "uint256"
        }
      ],
      "name": "rebukeClaim",
      "outputs": [],
      "stateMutability": "nonpayable",
      "type": "function"
    },
    {
      "inputs": [
        {
          "components": [
            {
              "internalType": "address",
              "name": "org",
              "type": "address"
            },
            {
              "internalType": "address",
              "name": "claimee",
              "type": "address"
            }
          ],
          "internalType": "struct OrgAffilliation",
          "name": "orgAff",
          "type": "tuple"
        },
        {
          "internalType": "address",
          "name": "petOwner",
          "type": "address"
        },
        {
          "internalType": "string",
          "name": "medPayload",
          "type": "string"
        }
      ],
      "name": "receiveMedicalPayload",
      "outputs": [],
      "stateMutability": "nonpayable",
      "type": "function"
    },
    {
      "inputs": [
        {
          "internalType": "address",
          "name": "from",
          "type": "address"
        },
        {
          "internalType": "address",
          "name": "to",
          "type": "address"
        },
        {
          "internalType": "uint256",
          "name": "tokenId",
          "type": "uint256"
        }
      ],
      "name": "safeTransferFrom",
      "outputs": [],
      "stateMutability": "nonpayable",
      "type": "function"
    },
    {
      "inputs": [
        {
          "internalType": "address",
          "name": "from",
          "type": "address"
        },
        {
          "internalType": "address",
          "name": "to",
          "type": "address"
        },
        {
          "internalType": "uint256",
          "name": "tokenId",
          "type": "uint256"
        },
        {
          "internalType": "bytes",
          "name": "data",
          "type": "bytes"
        }
      ],
      "name": "safeTransferFrom",
      "outputs": [],
      "stateMutability": "nonpayable",
      "type": "function"
    },
    {
      "inputs": [
        {
          "internalType": "address",
          "name": "operator",
          "type": "address"
        },
        {
          "internalType": "bool",
          "name": "approved",
          "type": "bool"
        }
      ],
      "name": "setApprovalForAll",
      "outputs": [],
      "stateMutability": "nonpayable",
      "type": "function"
    },
    {
      "inputs": [
        {
          "internalType": "bytes4",
          "name": "interfaceId",
          "type": "bytes4"
        }
      ],
      "name": "supportsInterface",
      "outputs": [
        {
          "internalType": "bool",
          "name": "",
          "type": "bool"
        }
      ],
      "stateMutability": "view",
      "type": "function"
    },
    {
      "inputs": [],
      "name": "symbol",
      "outputs": [
        {
          "internalType": "string",
          "name": "",
          "type": "string"
        }
      ],
      "stateMutability": "view",
      "type": "function"
    },
    {
      "inputs": [
        {
          "internalType": "uint256",
          "name": "tokenId",
          "type": "uint256"
        }
      ],
      "name": "tokenURI",
      "outputs": [
        {
          "internalType": "string",
          "name": "",
          "type": "string"
        }
      ],
      "stateMutability": "view",
      "type": "function"
    },
    {
      "inputs": [
        {
          "internalType": "address",
          "name": "from",
          "type": "address"
        },
        {
          "internalType": "address",
          "name": "to",
          "type": "address"
        },
        {
          "internalType": "uint256",
          "name": "tokenId",
          "type": "uint256"
        }
      ],
      "name": "transferFrom",
      "outputs": [],
      "stateMutability": "nonpayable",
      "type": "function"
    },
    {
      "inputs": [
        {
          "internalType": "uint256",
          "name": "tokenId",
          "type": "uint256"
        },
        {
          "internalType": "address",
          "name": "claimee",
          "type": "address"
        }
      ],
      "name": "withdrawClaim",
      "outputs": [],
      "stateMutability": "nonpayable",
      "type": "function"
    }
  ],
  "transactionHash": "0x7323eab810ebf09ba9c89c54eba57719fb42d65b757fdb2d2df57eff14b53d82",
  "args": [
    "0x76EC73AC886EED8A393fBe6EF004aaFb9525301B",
    "0xC22a79eBA640940ABB6dF0f7982cc119578E11De",
    "const EthCrypto = await import('npm:eth-crypto');\r\nconst { Buffer } = await import('node:buffer')\r\n\r\n\r\nconst tokenId = args[0];\r\nconst transfereePublicKey = args[1];\r\nconst addressTo = args[2];\r\nconst requestId = args[3];\r\n\r\nconst data  = await Functions.makeHttpRequest({\r\n  url: `http://eus-pawledger-backend.azurewebsites.net/api/medicalHistories/${tokenId}`,\r\n  method: \"GET\",\r\n  timeout: 10000\r\n});\r\n\r\nconst encryptedMessage = data.data[0].encryptedHistory;\r\n\r\n//Decrypting with DON's private key\r\nconst result = await EthCrypto.decryptWithPrivateKey(secrets.privateKey, JSON.parse(encryptedMessage));\r\n\r\n//ReEncrypt with New Owners public key\r\nconst reEncryptedMessage = await EthCrypto.encryptWithPublicKey(\r\n  transfereePublicKey, // publicKey\r\n  result // message\r\n);\r\n\r\nconst historyString = await JSON.stringify(reEncryptedMessage)\r\n\r\n// console.log(historyString)\r\nconst test = {\r\n  tokenId: tokenId,\r\n  encryptedHistory: reEncryptedMessage,\r\n  addressedTo: addressTo,\r\n  requestId: requestId\r\n}\r\n\r\n\r\nawait Functions.makeHttpRequest({\r\n  url: `https://eus-pawledger-backend.azurewebsites.net/api/medicalHistory`,\r\n  method: \"PUT\",\r\n  headers: {\r\n    \"Content-Type\": \"application/json\",\r\n  },\r\n  data: test,\r\n  timeout: 10000\r\n});\r\n\r\nconst responsePayload = {\r\n  tokenId: tokenId,\r\n  requestId: requestId\r\n}\r\n\r\nreturn Functions.encodeString(true);"
  ],
  "numDeployments": 1,
  "solcInputHash": "600020c200b8b07aeae3cdbd2e83db8d",
  "bytecode": "0x60c06040523480156200001157600080fd5b5060405162003bf838038062003bf8833981016040819052620000349162000155565b6040518060400160405280600381526020016214195d60ea1b8152506040518060400160405280600381526020016214115560ea1b81525081600090816200007d9190620002c9565b5060016200008c8282620002c9565b5050506001600160a01b038316608052604051829082903090620000b090620000f2565b620000be9392919062000395565b604051809103906000f080158015620000db573d6000803e3d6000fd5b506001600160a01b031660a05250620003fc915050565b61163280620025c683390190565b6001600160a01b03811681146200011657600080fd5b50565b634e487b7160e01b600052604160045260246000fd5b60005b838110156200014c57818101518382015260200162000132565b50506000910152565b6000806000606084860312156200016b57600080fd5b8351620001788162000100565b60208501519093506200018b8162000100565b60408501519092506001600160401b0380821115620001a957600080fd5b818601915086601f830112620001be57600080fd5b815181811115620001d357620001d362000119565b604051601f8201601f19908116603f01168101908382118183101715620001fe57620001fe62000119565b816040528281528960208487010111156200021857600080fd5b6200022b8360208301602088016200012f565b80955050505050509250925092565b600181811c908216806200024f57607f821691505b6020821081036200027057634e487b7160e01b600052602260045260246000fd5b50919050565b601f821115620002c457600081815260208120601f850160051c810160208610156200029f5750805b601f850160051c820191505b81811015620002c057828155600101620002ab565b5050505b505050565b81516001600160401b03811115620002e557620002e562000119565b620002fd81620002f684546200023a565b8462000276565b602080601f8311600181146200033557600084156200031c5750858301515b600019600386901b1c1916600185901b178555620002c0565b600085815260208120601f198616915b82811015620003665788860151825594840194600190910190840162000345565b5085821015620003855787850151600019600388901b60f8161c191681555b5050505050600190811b01905550565b600060018060a01b0380861683527166756e2d706f6c79676f6e2d616d6f792d3160701b6020840152608060408401528451806080850152620003e08160a08601602089016200012f565b9316606083015250601f91909101601f19160160a00192915050565b60805160a05161217a6200044c600039600081816101e40152818161020d01526107d901526000818161068c015281816109ce01528181610b0d01528181610c860152610e01015261217a6000f3fe608060405234801561001057600080fd5b506004361061014d5760003560e01c80636352211e116100c3578063b88d4fde1161007c578063b88d4fde146102f0578063bc96832614610303578063c15093661461030b578063c87b56dd1461031e578063ce4af83114610331578063e985e9c51461034457600080fd5b80636352211e1461027b57806370a082311461028e578063815b8c82146102af57806395d89b41146102c2578063a22cb465146102ca578063b3f4cde6146102dd57600080fd5b806309699c411161011557806309699c41146101e2578063218ecc4c1461020857806323b872dd1461022f5780633c118f401461024257806342842e0e14610255578063527b061c1461026857600080fd5b806301ffc9a71461015257806303167fd81461017a57806306fdde031461018f578063081812fc146101a4578063095ea7b3146101cf575b600080fd5b6101656101603660046118e1565b610380565b60405190151581526020015b60405180910390f35b61018d6101883660046118fe565b6103d2565b005b610197610478565b6040516101719190611967565b6101b76101b23660046118fe565b61050a565b6040516001600160a01b039091168152602001610171565b61018d6101dd366004611996565b610531565b7f00000000000000000000000000000000000000000000000000000000000000006101b7565b6101b77f000000000000000000000000000000000000000000000000000000000000000081565b61018d61023d3660046119c0565b610646565b61018d610250366004611a9f565b610677565b61018d6102633660046119c0565b610876565b61018d610276366004611b12565b610891565b6101b76102893660046118fe565b6108d0565b6102a161029c366004611b7f565b610930565b604051908152602001610171565b6102a16102bd366004611bf8565b6109b6565b610197610ada565b61018d6102d8366004611c3a565b610ae9565b61018d6102eb366004611c71565b610af8565b61018d6102fe366004611c95565b610c39565b6006546102a1565b61018d610319366004611cfd565b610c71565b61019761032c3660046118fe565b610d5d565b61018d61033f366004611d52565b610dec565b610165610352366004611d75565b6001600160a01b03918216600090815260056020908152604080832093909416825291909152205460ff1690565b60006001600160e01b031982166380ac58cd60e01b14806103b157506001600160e01b03198216635b5e139f60e01b145b806103cc57506301ffc9a760e01b6001600160e01b03198316145b92915050565b336103dc826108d0565b6001600160a01b03161461044c5760405162461bcd60e51b815260206004820152602c60248201527f4f6e6c7920746865206f776e6572206f6620746865207065742063616e20726560448201526b62756b65206120636c61696d60a01b60648201526084015b60405180910390fd5b600090815260076020526040902080546001600160a01b03199081168255600190910180549091169055565b60606000805461048790611d9f565b80601f01602080910402602001604051908101604052809291908181526020018280546104b390611d9f565b80156105005780601f106104d557610100808354040283529160200191610500565b820191906000526020600020905b8154815290600101906020018083116104e357829003601f168201915b5050505050905090565b600061051582610f37565b506000908152600460205260409020546001600160a01b031690565b600061053c826108d0565b9050806001600160a01b0316836001600160a01b0316036105a95760405162461bcd60e51b815260206004820152602160248201527f4552433732313a20617070726f76616c20746f2063757272656e74206f776e656044820152603960f91b6064820152608401610443565b336001600160a01b03821614806105c557506105c58133610352565b6106375760405162461bcd60e51b815260206004820152603d60248201527f4552433732313a20617070726f76652063616c6c6572206973206e6f7420746f60448201527f6b656e206f776e6572206f7220617070726f76656420666f7220616c6c0000006064820152608401610443565b6106418383610f99565b505050565b6106503382611007565b61066c5760405162461bcd60e51b815260040161044390611dd9565b610641838383611086565b604051630b91eaf960e01b81523360048201527f00000000000000000000000000000000000000000000000000000000000000006001600160a01b031690630b91eaf990602401602060405180830381865afa1580156106db573d6000803e3d6000fd5b505050506040513d601f19601f820116820180604052508101906106ff9190611e26565b61071b5760405162461bcd60e51b815260040161044390611e43565b60408051600480825260a08201909252600091816020015b6060815260200190600190039081610733579050509050610753846111ea565b8160008151811061076657610766611eb1565b6020026020010181905250828160018151811061078557610785611eb1565b60200260200101819052506107a4856001600160a01b0316601461127d565b816002815181106107b7576107b7611eb1565b60209081029190910101526040516317026d2b60e11b81526001600160a01b037f00000000000000000000000000000000000000000000000000000000000000001690632e04da56906108109084908690600401611ec7565b6020604051808303816000875af115801561082f573d6000803e3d6000fd5b505050506040513d601f19601f820116820180604052508101906108539190611f39565b5061086f33868660405180602001604052806000815250611419565b5050505050565b61064183838360405180602001604052806000815250610c39565b827f60c4b18e83b6f0d0ca77e3c2ebf445745a8978f83eb60feba61edba7ec45bc7283836040516108c3929190611f52565b60405180910390a2505050565b6000818152600260205260408120546001600160a01b0316806103cc5760405162461bcd60e51b8152602060048201526018602482015277115490cdcc8c4e881a5b9d985b1a59081d1bdad95b88125160421b6044820152606401610443565b60006001600160a01b03821661099a5760405162461bcd60e51b815260206004820152602960248201527f4552433732313a2061646472657373207a65726f206973206e6f7420612076616044820152683634b21037bbb732b960b91b6064820152608401610443565b506001600160a01b031660009081526003602052604090205490565b604051630b91eaf960e01b81523360048201526000907f00000000000000000000000000000000000000000000000000000000000000006001600160a01b031690630b91eaf990602401602060405180830381865afa158015610a1d573d6000803e3d6000fd5b505050506040513d601f19601f82011682018060405250810190610a419190611e26565b610a5d5760405162461bcd60e51b815260040161044390611e43565b8251602080850151604080516001600160a01b0394851681529184169282019290925291841682820152517f434ca30d6535ee3e62fafdfb0997d39bd9df9de67201e6633167c3e5d2d5dbb09181900360600190a16006805460009182610ac383611f96565b919050559050610ad3838261144c565b9392505050565b60606001805461048790611d9f565b610af4338383611466565b5050565b604051630b91eaf960e01b81523360048201527f00000000000000000000000000000000000000000000000000000000000000006001600160a01b031690630b91eaf990602401602060405180830381865afa158015610b5c573d6000803e3d6000fd5b505050506040513d601f19601f82011682018060405250810190610b809190611e26565b610b9c5760405162461bcd60e51b815260040161044390611e43565b805160208201516040517f4ee171bc2a0548d324eb195b5c98f36737f5c0acb3fb7caaa422cc98c77f20a492610beb928683526001600160a01b03918216602084015216604082015260600190565b60405180910390a16000918252600760209081526040909220815181546001600160a01b039182166001600160a01b0319918216178355929093015160019091018054919093169116179055565b610c433383611007565b610c5f5760405162461bcd60e51b815260040161044390611dd9565b610c6b84848484611419565b50505050565b604051630b91eaf960e01b81523360048201527f00000000000000000000000000000000000000000000000000000000000000006001600160a01b031690630b91eaf990602401602060405180830381865afa158015610cd5573d6000803e3d6000fd5b505050506040513d601f19601f82011682018060405250810190610cf99190611e26565b610d155760405162461bcd60e51b815260040161044390611e43565b825160208401516040517f0afcb2330aa352e0ab4d7d0f9e284f0f2742ea037b2fba02198744e6484069dc92610d5092909186908690611faf565b60405180910390a1505050565b6060610d6882610f37565b6000610d9b6040805180820190915260148152736d6574617365727669636520757269206865726560601b602082015290565b90506000815111610dbb5760405180602001604052806000815250610ad3565b80610dc5846111ea565b604051602001610dd6929190611fed565b6040516020818303038152906040529392505050565b604051630b91eaf960e01b81523360048201527f00000000000000000000000000000000000000000000000000000000000000006001600160a01b031690630b91eaf990602401602060405180830381865afa158015610e50573d6000803e3d6000fd5b505050506040513d601f19601f82011682018060405250810190610e749190611e26565b610e905760405162461bcd60e51b815260040161044390611e43565b6000828152600760205260409020600101546001600160a01b03828116911614610f0a5760405162461bcd60e51b815260206004820152602560248201527f4f6e6c792074686520636c61696d65652063616e207769746864726177206120604482015264636c61696d60d81b6064820152608401610443565b50600090815260076020526040902080546001600160a01b03199081168255600190910180549091169055565b6000818152600260205260409020546001600160a01b0316610f965760405162461bcd60e51b8152602060048201526018602482015277115490cdcc8c4e881a5b9d985b1a59081d1bdad95b88125160421b6044820152606401610443565b50565b600081815260046020526040902080546001600160a01b0319166001600160a01b0384169081179091558190610fce826108d0565b6001600160a01b03167f8c5be1e5ebec7d5bd14f71427d1e84f3dd0314c0f7b2291e5b200ac8c7c3b92560405160405180910390a45050565b600080611013836108d0565b9050806001600160a01b0316846001600160a01b0316148061105a57506001600160a01b0380821660009081526005602090815260408083209388168352929052205460ff165b8061107e5750836001600160a01b03166110738461050a565b6001600160a01b0316145b949350505050565b826001600160a01b0316611099826108d0565b6001600160a01b0316146110bf5760405162461bcd60e51b81526004016104439061201c565b6001600160a01b0382166111215760405162461bcd60e51b8152602060048201526024808201527f4552433732313a207472616e7366657220746f20746865207a65726f206164646044820152637265737360e01b6064820152608401610443565b826001600160a01b0316611134826108d0565b6001600160a01b03161461115a5760405162461bcd60e51b81526004016104439061201c565b600081815260046020908152604080832080546001600160a01b03199081169091556001600160a01b0387811680865260038552838620805460001901905590871680865283862080546001019055868652600290945282852080549092168417909155905184937fddf252ad1be2c89b69c2b068fc378daa952ba7f163c4a11628f55a4df523b3ef91a4505050565b606060006111f783611534565b600101905060008167ffffffffffffffff811115611217576112176119fc565b6040519080825280601f01601f191660200182016040528015611241576020820181803683370190505b5090508181016020015b600019016f181899199a1a9b1b9c1cb0b131b232b360811b600a86061a8153600a850494508461124b57509392505050565b6060600061128c836002612061565b611297906002612078565b67ffffffffffffffff8111156112af576112af6119fc565b6040519080825280601f01601f1916602001820160405280156112d9576020820181803683370190505b509050600360fc1b816000815181106112f4576112f4611eb1565b60200101906001600160f81b031916908160001a905350600f60fb1b8160018151811061132357611323611eb1565b60200101906001600160f81b031916908160001a9053506000611347846002612061565b611352906001612078565b90505b60018111156113ca576f181899199a1a9b1b9c1cb0b131b232b360811b85600f166010811061138657611386611eb1565b1a60f81b82828151811061139c5761139c611eb1565b60200101906001600160f81b031916908160001a90535060049490941c936113c38161208b565b9050611355565b508315610ad35760405162461bcd60e51b815260206004820181905260248201527f537472696e67733a20686578206c656e67746820696e73756666696369656e746044820152606401610443565b611424848484611086565b6114308484848461160c565b610c6b5760405162461bcd60e51b8152600401610443906120a2565b610af482826040518060200160405280600081525061170d565b816001600160a01b0316836001600160a01b0316036114c75760405162461bcd60e51b815260206004820152601960248201527f4552433732313a20617070726f766520746f2063616c6c6572000000000000006044820152606401610443565b6001600160a01b03838116600081815260056020908152604080832094871680845294825291829020805460ff191686151590811790915591519182527f17307eab39ab6107e8899845ad3d59bd9653f200f220920489ca2b5937696c31910160405180910390a3505050565b60008072184f03e93ff9f4daa797ed6e38ed64bf6a1f0160401b83106115735772184f03e93ff9f4daa797ed6e38ed64bf6a1f0160401b830492506040015b6d04ee2d6d415b85acef8100000000831061159f576d04ee2d6d415b85acef8100000000830492506020015b662386f26fc1000083106115bd57662386f26fc10000830492506010015b6305f5e10083106115d5576305f5e100830492506008015b61271083106115e957612710830492506004015b606483106115fb576064830492506002015b600a83106103cc5760010192915050565b60006001600160a01b0384163b1561170257604051630a85bd0160e11b81526001600160a01b0385169063150b7a02906116509033908990889088906004016120f4565b6020604051808303816000875af192505050801561168b575060408051601f3d908101601f1916820190925261168891810190612127565b60015b6116e8573d8080156116b9576040519150601f19603f3d011682016040523d82523d6000602084013e6116be565b606091505b5080516000036116e05760405162461bcd60e51b8152600401610443906120a2565b805181602001fd5b6001600160e01b031916630a85bd0160e11b14905061107e565b506001949350505050565b6117178383611740565b611724600084848461160c565b6106415760405162461bcd60e51b8152600401610443906120a2565b6001600160a01b0382166117965760405162461bcd60e51b815260206004820181905260248201527f4552433732313a206d696e7420746f20746865207a65726f20616464726573736044820152606401610443565b6000818152600260205260409020546001600160a01b0316156117fb5760405162461bcd60e51b815260206004820152601c60248201527f4552433732313a20746f6b656e20616c7265616479206d696e746564000000006044820152606401610443565b6000818152600260205260409020546001600160a01b0316156118605760405162461bcd60e51b815260206004820152601c60248201527f4552433732313a20746f6b656e20616c7265616479206d696e746564000000006044820152606401610443565b6001600160a01b038216600081815260036020908152604080832080546001019055848352600290915280822080546001600160a01b0319168417905551839291907fddf252ad1be2c89b69c2b068fc378daa952ba7f163c4a11628f55a4df523b3ef908290a45050565b6001600160e01b031981168114610f9657600080fd5b6000602082840312156118f357600080fd5b8135610ad3816118cb565b60006020828403121561191057600080fd5b5035919050565b60005b8381101561193257818101518382015260200161191a565b50506000910152565b60008151808452611953816020860160208601611917565b601f01601f19169290920160200192915050565b602081526000610ad3602083018461193b565b80356001600160a01b038116811461199157600080fd5b919050565b600080604083850312156119a957600080fd5b6119b28361197a565b946020939093013593505050565b6000806000606084860312156119d557600080fd5b6119de8461197a565b92506119ec6020850161197a565b9150604084013590509250925092565b634e487b7160e01b600052604160045260246000fd5b600082601f830112611a2357600080fd5b813567ffffffffffffffff80821115611a3e57611a3e6119fc565b604051601f8301601f19908116603f01168101908282118183101715611a6657611a666119fc565b81604052838152866020858801011115611a7f57600080fd5b836020870160208301376000602085830101528094505050505092915050565b60008060008060808587031215611ab557600080fd5b611abe8561197a565b935060208501359250604085013567ffffffffffffffff811115611ae157600080fd5b611aed87828801611a12565b925050606085013563ffffffff81168114611b0757600080fd5b939692955090935050565b600080600060608486031215611b2757600080fd5b83359250602084013567ffffffffffffffff80821115611b4657600080fd5b611b5287838801611a12565b93506040860135915080821115611b6857600080fd5b50611b7586828701611a12565b9150509250925092565b600060208284031215611b9157600080fd5b610ad38261197a565b600060408284031215611bac57600080fd5b6040516040810181811067ffffffffffffffff82111715611bcf57611bcf6119fc565b604052905080611bde8361197a565b8152611bec6020840161197a565b60208201525092915050565b60008060608385031215611c0b57600080fd5b611c158484611b9a565b9150611c236040840161197a565b90509250929050565b8015158114610f9657600080fd5b60008060408385031215611c4d57600080fd5b611c568361197a565b91506020830135611c6681611c2c565b809150509250929050565b60008060608385031215611c8457600080fd5b82359150611c238460208501611b9a565b60008060008060808587031215611cab57600080fd5b611cb48561197a565b9350611cc26020860161197a565b925060408501359150606085013567ffffffffffffffff811115611ce557600080fd5b611cf187828801611a12565b91505092959194509250565b600080600060808486031215611d1257600080fd5b611d1c8585611b9a565b9250611d2a6040850161197a565b9150606084013567ffffffffffffffff811115611d4657600080fd5b611b7586828701611a12565b60008060408385031215611d6557600080fd5b82359150611c236020840161197a565b60008060408385031215611d8857600080fd5b611d918361197a565b9150611c236020840161197a565b600181811c90821680611db357607f821691505b602082108103611dd357634e487b7160e01b600052602260045260246000fd5b50919050565b6020808252602d908201527f4552433732313a2063616c6c6572206973206e6f7420746f6b656e206f776e6560408201526c1c881bdc88185c1c1c9bdd9959609a1b606082015260800190565b600060208284031215611e3857600080fd5b8151610ad381611c2c565b60208082526048908201527f4f6e6c79206120726567697374657265642075736572206f6620612076616c6960408201527f6461746564206f7267616e697a6174696f6e2063616e20757365207468697320606082015267333ab731ba34b7b760c11b608082015260a00190565b634e487b7160e01b600052603260045260246000fd5b6000604082016040835280855180835260608501915060608160051b8601019250602080880160005b83811015611f1e57605f19888703018552611f0c86835161193b565b95509382019390820190600101611ef0565b505083945063ffffffff871681870152505050509392505050565b600060208284031215611f4b57600080fd5b5051919050565b604081526000611f65604083018561193b565b8281036020840152611f77818561193b565b95945050505050565b634e487b7160e01b600052601160045260246000fd5b600060018201611fa857611fa8611f80565b5060010190565b6001600160a01b038581168252848116602083015283166040820152608060608201819052600090611fe39083018461193b565b9695505050505050565b60008351611fff818460208801611917565b835190830190612013818360208801611917565b01949350505050565b60208082526025908201527f4552433732313a207472616e736665722066726f6d20696e636f72726563742060408201526437bbb732b960d91b606082015260800190565b80820281158282048414176103cc576103cc611f80565b808201808211156103cc576103cc611f80565b60008161209a5761209a611f80565b506000190190565b60208082526032908201527f4552433732313a207472616e7366657220746f206e6f6e20455243373231526560408201527131b2b4bb32b91034b6b83632b6b2b73a32b960711b606082015260800190565b6001600160a01b0385811682528416602082015260408101839052608060608201819052600090611fe39083018461193b565b60006020828403121561213957600080fd5b8151610ad3816118cb56fea26469706673582212206c022f16e801a5e5ede6b682b826ba426e87c97fa85e128d64af3f461ad367df64736f6c6343000813003360c06040523480156200001157600080fd5b5060405162001632380380620016328339810160408190526200003491620000ac565b6001600160a01b0384166080526002839055600162000054838262000242565b506001600160a01b031660a052506200030e915050565b6001600160a01b03811681146200008157600080fd5b50565b634e487b7160e01b600052604160045260246000fd5b8051620000a7816200006b565b919050565b60008060008060808587031215620000c357600080fd5b8451620000d0816200006b565b60208681015160408801519296509450906001600160401b0380821115620000f757600080fd5b818801915088601f8301126200010c57600080fd5b81518181111562000121576200012162000084565b604051601f8201601f19908116603f011681019083821181831017156200014c576200014c62000084565b816040528281528b868487010111156200016557600080fd5b600093505b828410156200018957848401860151818501870152928501926200016a565b6000868483010152809750505050505050620001a8606086016200009a565b905092959194509250565b600181811c90821680620001c857607f821691505b602082108103620001e957634e487b7160e01b600052602260045260246000fd5b50919050565b601f8211156200023d57600081815260208120601f850160051c81016020861015620002185750805b601f850160051c820191505b81811015620002395782815560010162000224565b5050505b505050565b81516001600160401b038111156200025e576200025e62000084565b62000276816200026f8454620001b3565b84620001ef565b602080601f831160018114620002ae5760008415620002955750858301515b600019600386901b1c1916600185901b17855562000239565b600085815260208120601f198616915b82811015620002df57888601518255948401946001909101908401620002be565b5085821015620002fe5787850151600019600388901b60f8161c191681555b5050505050600190811b01905550565b60805160a0516112f86200033a600039600061025c0152600081816080015261077901526112f86000f3fe608060405234801561001057600080fd5b50600436106100365760003560e01c80630ca761751461003b5780632e04da5614610050575b600080fd5b61004e610049366004610e92565b610075565b005b61006361005e366004610f17565b6100f9565b60405190815260200160405180910390f35b336001600160a01b037f000000000000000000000000000000000000000000000000000000000000000016146100be5760405163c6829f8360e01b815260040160405180910390fd5b6100c9838383610245565b60405183907f85e1543bf2f84fe80c6badbce3648c8539ad1df4d2b3d822938ca0538be727e690600090a2505050565b600061013c6040805160e0810190915280600081526020016000815260200160008152602001606081526020016060815260200160608152602001606081525090565b6101476000546102cc565b8460038151811061015a5761015a611001565b60200260200101819052506102076000806001805461017890611017565b80601f01602080910402602001604051908101604052809291908181526020018280546101a490611017565b80156101f15780601f106101c6576101008083540402835291602001916101f1565b820191906000526020600020905b8154815290600101906020018083116101d457829003601f168201915b50505050508461035e909392919063ffffffff16565b61021781600063665505f06103dc565b6102218185610472565b600061023a61022f8361049c565b60e786600254610774565b925050505b92915050565b60405163149ec18760e21b81526001600160a01b037f0000000000000000000000000000000000000000000000000000000000000000169063527b061c9061029590869086908690600401611097565b600060405180830381600087803b1580156102af57600080fd5b505af11580156102c3573d6000803e3d6000fd5b50505050505050565b606060006102d983610846565b60010190506000816001600160401b038111156102f8576102f8610dd5565b6040519080825280601f01601f191660200182016040528015610322576020820181803683370190505b5090508181016020015b600019016f181899199a1a9b1b9c1cb0b131b232b360811b600a86061a8153600a850494508461032c57509392505050565b8051600003610380576040516322ce3edd60e01b815260040160405180910390fd5b83836002811115610393576103936110cc565b908160028111156103a6576103a66110cc565b905250604084018280156103bc576103bc6110cc565b908180156103cc576103cc6110cc565b9052506060909301929092525050565b60006103e961010061091e565b905061041c604051806040016040528060068152602001651cdb1bdd125160d21b8152508261093f90919063ffffffff16565b6104298160ff851661095d565b6040805180820190915260078152663b32b939b4b7b760c91b602082015261045290829061093f565b61045c818361095d565b6002602085015251516080909301929092525050565b80516000036104945760405163fe936cb760e01b815260040160405180910390fd5b60a090910152565b606060006104ab61010061091e565b90506104e46040518060400160405280600c81526020016b31b7b232a637b1b0ba34b7b760a11b8152508261093f90919063ffffffff16565b82516105029060028111156104fb576104fb6110cc565b829061096d565b6040805180820190915260088152676c616e677561676560c01b602082015261052c90829061093f565b60408301516105439080156104fb576104fb6110cc565b604080518082019091526006815265736f7572636560d01b602082015261056b90829061093f565b606083015161057b90829061093f565b60a0830151511561060f576040805180820190915260048152636172677360e01b60208201526105ac90829061093f565b6105b5816109a6565b60005b8360a0015151811015610605576105f58460a0015182815181106105de576105de611001565b60200260200101518361093f90919063ffffffff16565b6105fe816110f8565b90506105b8565b5061060f816109ca565b608083015151156106d357600083602001516002811115610632576106326110cc565b036106505760405163a80d31f760e01b815260040160405180910390fd5b60408051808201909152600f81526e39b2b1b932ba39a637b1b0ba34b7b760891b602082015261068190829061093f565b61069a836020015160028111156104fb576104fb6110cc565b6040805180820190915260078152667365637265747360c81b60208201526106c390829061093f565b60808301516106d39082906109e8565b60c0830151511561076c5760408051808201909152600981526862797465734172677360b81b602082015261070990829061093f565b610712816109a6565b60005b8360c0015151811015610762576107528460c00151828151811061073b5761073b611001565b6020026020010151836109e890919063ffffffff16565b61075b816110f8565b9050610715565b5061076c816109ca565b515192915050565b6000807f00000000000000000000000000000000000000000000000000000000000000006001600160a01b031663461d27628688600188886040518663ffffffff1660e01b81526004016107cc959493929190611111565b6020604051808303816000875af11580156107eb573d6000803e3d6000fd5b505050506040513d601f19601f8201168201806040525081019061080f919061115a565b60405190915081907f1131472297a800fee664d1d89cfa8f7676ff07189ecc53f80bbb5f4969099db890600090a295945050505050565b60008072184f03e93ff9f4daa797ed6e38ed64bf6a1f0160401b83106108855772184f03e93ff9f4daa797ed6e38ed64bf6a1f0160401b830492506040015b6d04ee2d6d415b85acef810000000083106108b1576d04ee2d6d415b85acef8100000000830492506020015b662386f26fc1000083106108cf57662386f26fc10000830492506010015b6305f5e10083106108e7576305f5e100830492506008015b61271083106108fb57612710830492506004015b6064831061090d576064830492506002015b600a831061023f5760010192915050565b610926610da0565b805161093290836109f5565b5060006020820152919050565b61094c8260038351610a6c565b81516109589082610b8b565b505050565b61096982600083610a6c565b5050565b815161097a9060c2610bb3565b50610969828260405160200161099291815260200190565b6040516020818303038152906040526109e8565b6109b1816004610c1c565b6001816020018181516109c49190611173565b90525050565b6109d5816007610c1c565b6001816020018181516109c49190611186565b61094c8260028351610a6c565b604080518082019091526060815260006020820152610a15602083611199565b15610a3d57610a25602083611199565b610a30906020611186565b610a3a9083611173565b91505b602080840183905260405180855260008152908184010181811015610a6157600080fd5b604052509192915050565b6017816001600160401b031611610a98578251610a929060e0600585901b168317610bb3565b50505050565b60ff816001600160401b031611610ad8578251610ac0906018611fe0600586901b1617610bb3565b508251610a92906001600160401b0383166001610c33565b61ffff816001600160401b031611610b19578251610b01906019611fe0600586901b1617610bb3565b508251610a92906001600160401b0383166002610c33565b63ffffffff816001600160401b031611610b5c578251610b4490601a611fe0600586901b1617610bb3565b508251610a92906001600160401b0383166004610c33565b8251610b7390601b611fe0600586901b1617610bb3565b508251610a92906001600160401b0383166008610c33565b604080518082019091526060815260006020820152610bac83838451610cb8565b9392505050565b6040805180820190915260608152600060208201528251516000610bd8826001611173565b905084602001518210610bf957610bf985610bf48360026111bb565b610d89565b8451602083820101858153508051821115610c12578181525b5093949350505050565b815161095890601f611fe0600585901b1617610bb3565b6040805180820190915260608152600060208201528351516000610c578285611173565b90508560200151811115610c7457610c7486610bf48360026111bb565b60006001610c84866101006112b6565b610c8e9190611186565b90508651828101878319825116178152508051831115610cac578281525b50959695505050505050565b6040805180820190915260608152600060208201528251821115610cdb57600080fd5b8351516000610cea8483611173565b90508560200151811115610d0757610d0786610bf48360026111bb565b855180518382016020019160009180851115610d21578482525b505050602086015b60208610610d615780518252610d40602083611173565b9150610d4d602082611173565b9050610d5a602087611186565b9550610d29565b51815160001960208890036101000a0190811690199190911617905250849150509392505050565b8151610d9583836109f5565b50610a928382610b8b565b6040518060400160405280610dc8604051806040016040528060608152602001600081525090565b8152602001600081525090565b634e487b7160e01b600052604160045260246000fd5b604051601f8201601f191681016001600160401b0381118282101715610e1357610e13610dd5565b604052919050565b60006001600160401b03831115610e3457610e34610dd5565b610e47601f8401601f1916602001610deb565b9050828152838383011115610e5b57600080fd5b828260208301376000602084830101529392505050565b600082601f830112610e8357600080fd5b610bac83833560208501610e1b565b600080600060608486031215610ea757600080fd5b8335925060208401356001600160401b0380821115610ec557600080fd5b610ed187838801610e72565b93506040860135915080821115610ee757600080fd5b50610ef486828701610e72565b9150509250925092565b803563ffffffff81168114610f1257600080fd5b919050565b6000806040808486031215610f2b57600080fd5b83356001600160401b0380821115610f4257600080fd5b818601915086601f830112610f5657600080fd5b8135602082821115610f6a57610f6a610dd5565b8160051b610f79828201610deb565b928352848101820192828101908b851115610f9357600080fd5b83870192505b84831015610fe357823586811115610fb15760008081fd5b8701603f81018d13610fc35760008081fd5b610fd38d868301358b8401610e1b565b8352509183019190830190610f99565b9850610ff3915050888201610efe565b955050505050509250929050565b634e487b7160e01b600052603260045260246000fd5b600181811c9082168061102b57607f821691505b60208210810361104b57634e487b7160e01b600052602260045260246000fd5b50919050565b6000815180845260005b818110156110775760208185018101518683018201520161105b565b506000602082860101526020601f19601f83011685010191505092915050565b8381526060602082015260006110b06060830185611051565b82810360408401526110c28185611051565b9695505050505050565b634e487b7160e01b600052602160045260246000fd5b634e487b7160e01b600052601160045260246000fd5b60006001820161110a5761110a6110e2565b5060010190565b6001600160401b038616815260a06020820152600061113360a0830187611051565b61ffff9590951660408301525063ffffffff92909216606083015260809091015292915050565b60006020828403121561116c57600080fd5b5051919050565b8082018082111561023f5761023f6110e2565b8181038181111561023f5761023f6110e2565b6000826111b657634e487b7160e01b600052601260045260246000fd5b500690565b808202811582820484141761023f5761023f6110e2565b600181815b8085111561120d5781600019048211156111f3576111f36110e2565b8085161561120057918102915b93841c93908002906111d7565b509250929050565b6000826112245750600161023f565b816112315750600061023f565b816001811461124757600281146112515761126d565b600191505061023f565b60ff841115611262576112626110e2565b50506001821b61023f565b5060208310610133831016604e8410600b8410161715611290575081810a61023f565b61129a83836111d2565b80600019048211156112ae576112ae6110e2565b029392505050565b6000610bac838361121556fea26469706673582212204d0d32e038f21e9b610156b9814b82b33b016ddb633e48d5efd91970873c7d9164736f6c63430008130033",
  "devdoc": {
    "events": {
      "Approval(address,address,uint256)": {
        "details": "Emitted when `owner` enables `approved` to manage the `tokenId` token."
      },
      "ApprovalForAll(address,address,bool)": {
        "details": "Emitted when `owner` enables or disables (`approved`) `operator` to manage all of its assets."
      },
      "Transfer(address,address,uint256)": {
        "details": "Emitted when `tokenId` token is transferred from `from` to `to`."
      }
    },
    "kind": "dev",
    "methods": {
      "approve(address,uint256)": {
        "details": "See {IERC721-approve}."
      },
      "balanceOf(address)": {
        "details": "See {IERC721-balanceOf}."
      },
      "getApproved(uint256)": {
        "details": "See {IERC721-getApproved}."
      },
      "isApprovedForAll(address,address)": {
        "details": "See {IERC721-isApprovedForAll}."
      },
      "name()": {
        "details": "See {IERC721Metadata-name}."
      },
      "ownerOf(uint256)": {
        "details": "See {IERC721-ownerOf}."
      },
      "safeTransferFrom(address,address,uint256)": {
        "details": "See {IERC721-safeTransferFrom}."
      },
      "safeTransferFrom(address,address,uint256,bytes)": {
        "details": "See {IERC721-safeTransferFrom}."
      },
      "setApprovalForAll(address,bool)": {
        "details": "See {IERC721-setApprovalForAll}."
      },
      "supportsInterface(bytes4)": {
        "details": "See {IERC165-supportsInterface}."
      },
      "symbol()": {
        "details": "See {IERC721Metadata-symbol}."
      },
      "tokenURI(uint256)": {
        "details": "See {IERC721Metadata-tokenURI}."
      },
      "transferFrom(address,address,uint256)": {
        "details": "See {IERC721-transferFrom}."
      }
    },
    "version": 1
  },
  "userdoc": {
    "kind": "user",
    "methods": {},
    "version": 1
  },
  "storageLayout": {
    "storage": [
      {
        "astId": 2092,
        "contract": "contracts/Pet.sol:Pet",
        "label": "_name",
        "offset": 0,
        "slot": "0",
        "type": "t_string_storage"
      },
      {
        "astId": 2094,
        "contract": "contracts/Pet.sol:Pet",
        "label": "_symbol",
        "offset": 0,
        "slot": "1",
        "type": "t_string_storage"
      },
      {
        "astId": 2098,
        "contract": "contracts/Pet.sol:Pet",
        "label": "_owners",
        "offset": 0,
        "slot": "2",
        "type": "t_mapping(t_uint256,t_address)"
      },
      {
        "astId": 2102,
        "contract": "contracts/Pet.sol:Pet",
        "label": "_balances",
        "offset": 0,
        "slot": "3",
        "type": "t_mapping(t_address,t_uint256)"
      },
      {
        "astId": 2106,
        "contract": "contracts/Pet.sol:Pet",
        "label": "_tokenApprovals",
        "offset": 0,
        "slot": "4",
        "type": "t_mapping(t_uint256,t_address)"
      },
      {
        "astId": 2112,
        "contract": "contracts/Pet.sol:Pet",
        "label": "_operatorApprovals",
        "offset": 0,
        "slot": "5",
        "type": "t_mapping(t_address,t_mapping(t_address,t_bool))"
      },
      {
        "astId": 5397,
        "contract": "contracts/Pet.sol:Pet",
        "label": "_nextTokenId",
        "offset": 0,
        "slot": "6",
        "type": "t_uint256"
      },
      {
        "astId": 5408,
        "contract": "contracts/Pet.sol:Pet",
        "label": "_foundClaimMap",
        "offset": 0,
        "slot": "7",
        "type": "t_mapping(t_uint256,t_struct(OrgAffilliation)5853_storage)"
      }
    ],
    "types": {
      "t_address": {
        "encoding": "inplace",
        "label": "address",
        "numberOfBytes": "20"
      },
      "t_bool": {
        "encoding": "inplace",
        "label": "bool",
        "numberOfBytes": "1"
      },
      "t_mapping(t_address,t_bool)": {
        "encoding": "mapping",
        "key": "t_address",
        "label": "mapping(address => bool)",
        "numberOfBytes": "32",
        "value": "t_bool"
      },
      "t_mapping(t_address,t_mapping(t_address,t_bool))": {
        "encoding": "mapping",
        "key": "t_address",
        "label": "mapping(address => mapping(address => bool))",
        "numberOfBytes": "32",
        "value": "t_mapping(t_address,t_bool)"
      },
      "t_mapping(t_address,t_uint256)": {
        "encoding": "mapping",
        "key": "t_address",
        "label": "mapping(address => uint256)",
        "numberOfBytes": "32",
        "value": "t_uint256"
      },
      "t_mapping(t_uint256,t_address)": {
        "encoding": "mapping",
        "key": "t_uint256",
        "label": "mapping(uint256 => address)",
        "numberOfBytes": "32",
        "value": "t_address"
      },
      "t_mapping(t_uint256,t_struct(OrgAffilliation)5853_storage)": {
        "encoding": "mapping",
        "key": "t_uint256",
        "label": "mapping(uint256 => struct OrgAffilliation)",
        "numberOfBytes": "32",
        "value": "t_struct(OrgAffilliation)5853_storage"
      },
      "t_string_storage": {
        "encoding": "bytes",
        "label": "string",
        "numberOfBytes": "32"
      },
      "t_struct(OrgAffilliation)5853_storage": {
        "encoding": "inplace",
        "label": "struct OrgAffilliation",
        "members": [
          {
            "astId": 5850,
            "contract": "contracts/Pet.sol:Pet",
            "label": "org",
            "offset": 0,
            "slot": "0",
            "type": "t_address"
          },
          {
            "astId": 5852,
            "contract": "contracts/Pet.sol:Pet",
            "label": "claimee",
            "offset": 0,
            "slot": "1",
            "type": "t_address"
          }
        ],
        "numberOfBytes": "64"
      },
      "t_uint256": {
        "encoding": "inplace",
        "label": "uint256",
        "numberOfBytes": "32"
      }
    }
  }
}