{
  "address": "0xea5a6c8D7Bf2a6136f121B6ea37fE7b6CF15C961",
  "abi": [
    {
      "inputs": [
        {
          "internalType": "contract OrganizationRegistry",
          "name": "orgRegistry",
          "type": "address"
        },
        {
          "internalType": "address",
          "name": "functionRouter",
          "type": "address"
        },
        {
          "internalType": "string",
          "name": "calculationLogic",
          "type": "string"
        }
      ],
      "stateMutability": "nonpayable",
      "type": "constructor"
    },
    {
      "anonymous": false,
      "inputs": [
        {
          "indexed": true,
          "internalType": "address",
          "name": "owner",
          "type": "address"
        },
        {
          "indexed": true,
          "internalType": "address",
          "name": "approved",
          "type": "address"
        },
        {
          "indexed": true,
          "internalType": "uint256",
          "name": "tokenId",
          "type": "uint256"
        }
      ],
      "name": "Approval",
      "type": "event"
    },
    {
      "anonymous": false,
      "inputs": [
        {
          "indexed": true,
          "internalType": "address",
          "name": "owner",
          "type": "address"
        },
        {
          "indexed": true,
          "internalType": "address",
          "name": "operator",
          "type": "address"
        },
        {
          "indexed": false,
          "internalType": "bool",
          "name": "approved",
          "type": "bool"
        }
      ],
      "name": "ApprovalForAll",
      "type": "event"
    },
    {
      "anonymous": false,
      "inputs": [
        {
          "indexed": false,
          "internalType": "uint256",
          "name": "tokenId",
          "type": "uint256"
        },
        {
          "indexed": false,
          "internalType": "address",
          "name": "orgAffiliation",
          "type": "address"
        },
        {
          "indexed": false,
          "internalType": "address",
          "name": "claimee",
          "type": "address"
        }
      ],
      "name": "FoundClaimMade",
      "type": "event"
    },
    {
      "anonymous": false,
      "inputs": [
        {
          "indexed": false,
          "internalType": "address",
          "name": "orgAffiliation",
          "type": "address"
        },
        {
          "indexed": false,
          "internalType": "address",
          "name": "claimee",
          "type": "address"
        },
        {
          "indexed": false,
          "internalType": "address",
          "name": "prtOwner",
          "type": "address"
        },
        {
          "indexed": false,
          "internalType": "string",
          "name": "medPayload",
          "type": "string"
        }
      ],
      "name": "MedicalPayload",
      "type": "event"
    },
    {
      "anonymous": false,
      "inputs": [
        {
          "indexed": false,
          "internalType": "address",
          "name": "orgAffiliation",
          "type": "address"
        },
        {
          "indexed": false,
          "internalType": "address",
          "name": "claimee",
          "type": "address"
        },
        {
          "indexed": false,
          "internalType": "address",
          "name": "prospectOwner",
          "type": "address"
        }
      ],
      "name": "MintClaimMade",
      "type": "event"
    },
    {
      "anonymous": false,
      "inputs": [
        {
          "indexed": true,
          "internalType": "bytes32",
          "name": "requestId",
          "type": "bytes32"
        },
        {
          "indexed": false,
          "internalType": "bytes",
          "name": "result",
          "type": "bytes"
        },
        {
          "indexed": false,
          "internalType": "bytes",
          "name": "err",
          "type": "bytes"
        }
      ],
      "name": "OCRResponse",
      "type": "event"
    },
    {
      "anonymous": false,
      "inputs": [
        {
          "indexed": true,
          "internalType": "address",
          "name": "from",
          "type": "address"
        },
        {
          "indexed": true,
          "internalType": "address",
          "name": "to",
          "type": "address"
        },
        {
          "indexed": true,
          "internalType": "uint256",
          "name": "tokenId",
          "type": "uint256"
        }
      ],
      "name": "Transfer",
      "type": "event"
    },
    {
      "inputs": [],
      "name": "_decryptConsumer",
      "outputs": [
        {
          "internalType": "contract DecryptConsumer",
          "name": "",
          "type": "address"
        }
      ],
      "stateMutability": "view",
      "type": "function"
    },
    {
      "inputs": [
        {
          "internalType": "address",
          "name": "to",
          "type": "address"
        },
        {
          "internalType": "uint256",
          "name": "tokenId",
          "type": "uint256"
        }
      ],
      "name": "approve",
      "outputs": [],
      "stateMutability": "nonpayable",
      "type": "function"
    },
    {
      "inputs": [
        {
          "internalType": "address",
          "name": "owner",
          "type": "address"
        }
      ],
      "name": "balanceOf",
      "outputs": [
        {
          "internalType": "uint256",
          "name": "",
          "type": "uint256"
        }
      ],
      "stateMutability": "view",
      "type": "function"
    },
    {
      "inputs": [
        {
          "internalType": "bytes32",
          "name": "requestId",
          "type": "bytes32"
        },
        {
          "internalType": "bytes",
          "name": "response",
          "type": "bytes"
        },
        {
          "internalType": "bytes",
          "name": "err",
          "type": "bytes"
        }
      ],
      "name": "eventDecryted",
      "outputs": [],
      "stateMutability": "nonpayable",
      "type": "function"
    },
    {
      "inputs": [
        {
          "internalType": "uint256",
          "name": "tokenId",
          "type": "uint256"
        },
        {
          "components": [
            {
              "internalType": "address",
              "name": "org",
              "type": "address"
            },
            {
              "internalType": "address",
              "name": "claimee",
              "type": "address"
            }
          ],
          "internalType": "struct OrgAffilliation",
          "name": "orgAff",
          "type": "tuple"
        }
      ],
      "name": "foundPetClaim",
      "outputs": [],
      "stateMutability": "nonpayable",
      "type": "function"
    },
    {
      "inputs": [
        {
          "internalType": "uint256",
          "name": "tokenId",
          "type": "uint256"
        }
      ],
      "name": "getApproved",
      "outputs": [
        {
          "internalType": "address",
          "name": "",
          "type": "address"
        }
      ],
      "stateMutability": "view",
      "type": "function"
    },
    {
      "inputs": [],
      "name": "getDecryptContract",
      "outputs": [
        {
          "internalType": "contract DecryptConsumer",
          "name": "",
          "type": "address"
        }
      ],
      "stateMutability": "view",
      "type": "function"
    },
    {
      "inputs": [],
      "name": "getNextId",
      "outputs": [
        {
          "internalType": "uint256",
          "name": "",
          "type": "uint256"
        }
      ],
      "stateMutability": "view",
      "type": "function"
    },
    {
      "inputs": [
        {
          "internalType": "address",
          "name": "owner",
          "type": "address"
        },
        {
          "internalType": "address",
          "name": "operator",
          "type": "address"
        }
      ],
      "name": "isApprovedForAll",
      "outputs": [
        {
          "internalType": "bool",
          "name": "",
          "type": "bool"
        }
      ],
      "stateMutability": "view",
      "type": "function"
    },
    {
      "inputs": [
        {
          "components": [
            {
              "internalType": "address",
              "name": "org",
              "type": "address"
            },
            {
              "internalType": "address",
              "name": "claimee",
              "type": "address"
            }
          ],
          "internalType": "struct OrgAffilliation",
          "name": "orgAff",
          "type": "tuple"
        },
        {
          "internalType": "address",
          "name": "prospectOwner",
          "type": "address"
        },
        {
          "internalType": "uint32",
          "name": "gasLimit",
          "type": "uint32"
        }
      ],
      "name": "mint",
      "outputs": [
        {
          "internalType": "uint256",
          "name": "",
          "type": "uint256"
        }
      ],
      "stateMutability": "nonpayable",
      "type": "function"
    },
    {
      "inputs": [],
      "name": "name",
      "outputs": [
        {
          "internalType": "string",
          "name": "",
          "type": "string"
        }
      ],
      "stateMutability": "view",
      "type": "function"
    },
    {
      "inputs": [
        {
          "internalType": "uint256",
          "name": "tokenId",
          "type": "uint256"
        }
      ],
      "name": "ownerOf",
      "outputs": [
        {
          "internalType": "address",
          "name": "",
          "type": "address"
        }
      ],
      "stateMutability": "view",
      "type": "function"
    },
    {
      "inputs": [
        {
          "internalType": "uint256",
          "name": "tokenId",
          "type": "uint256"
        }
      ],
      "name": "rebukeClaim",
      "outputs": [],
      "stateMutability": "nonpayable",
      "type": "function"
    },
    {
      "inputs": [
        {
          "components": [
            {
              "internalType": "address",
              "name": "org",
              "type": "address"
            },
            {
              "internalType": "address",
              "name": "claimee",
              "type": "address"
            }
          ],
          "internalType": "struct OrgAffilliation",
          "name": "orgAff",
          "type": "tuple"
        },
        {
          "internalType": "address",
          "name": "petOwner",
          "type": "address"
        },
        {
          "internalType": "string",
          "name": "medPayload",
          "type": "string"
        }
      ],
      "name": "receiveMedicalPayload",
      "outputs": [],
      "stateMutability": "nonpayable",
      "type": "function"
    },
    {
      "inputs": [
        {
          "internalType": "address",
          "name": "from",
          "type": "address"
        },
        {
          "internalType": "address",
          "name": "to",
          "type": "address"
        },
        {
          "internalType": "uint256",
          "name": "tokenId",
          "type": "uint256"
        }
      ],
      "name": "safeTransferFrom",
      "outputs": [],
      "stateMutability": "nonpayable",
      "type": "function"
    },
    {
      "inputs": [
        {
          "internalType": "address",
          "name": "from",
          "type": "address"
        },
        {
          "internalType": "address",
          "name": "to",
          "type": "address"
        },
        {
          "internalType": "uint256",
          "name": "tokenId",
          "type": "uint256"
        },
        {
          "internalType": "bytes",
          "name": "data",
          "type": "bytes"
        }
      ],
      "name": "safeTransferFrom",
      "outputs": [],
      "stateMutability": "nonpayable",
      "type": "function"
    },
    {
      "inputs": [
        {
          "internalType": "address",
          "name": "operator",
          "type": "address"
        },
        {
          "internalType": "bool",
          "name": "approved",
          "type": "bool"
        }
      ],
      "name": "setApprovalForAll",
      "outputs": [],
      "stateMutability": "nonpayable",
      "type": "function"
    },
    {
      "inputs": [
        {
          "internalType": "bytes4",
          "name": "interfaceId",
          "type": "bytes4"
        }
      ],
      "name": "supportsInterface",
      "outputs": [
        {
          "internalType": "bool",
          "name": "",
          "type": "bool"
        }
      ],
      "stateMutability": "view",
      "type": "function"
    },
    {
      "inputs": [],
      "name": "symbol",
      "outputs": [
        {
          "internalType": "string",
          "name": "",
          "type": "string"
        }
      ],
      "stateMutability": "view",
      "type": "function"
    },
    {
      "inputs": [
        {
          "internalType": "uint256",
          "name": "tokenId",
          "type": "uint256"
        }
      ],
      "name": "tokenURI",
      "outputs": [
        {
          "internalType": "string",
          "name": "",
          "type": "string"
        }
      ],
      "stateMutability": "view",
      "type": "function"
    },
    {
      "inputs": [
        {
          "internalType": "address",
          "name": "from",
          "type": "address"
        },
        {
          "internalType": "address",
          "name": "to",
          "type": "address"
        },
        {
          "internalType": "uint256",
          "name": "tokenId",
          "type": "uint256"
        }
      ],
      "name": "transferFrom",
      "outputs": [],
      "stateMutability": "nonpayable",
      "type": "function"
    },
    {
      "inputs": [
        {
          "internalType": "uint256",
          "name": "tokenId",
          "type": "uint256"
        },
        {
          "internalType": "address",
          "name": "claimee",
          "type": "address"
        }
      ],
      "name": "withdrawClaim",
      "outputs": [],
      "stateMutability": "nonpayable",
      "type": "function"
    }
  ],
  "transactionHash": "0xe23855c911d1f872412a1853e67ba339dca8617beb5db81dbd4f296d450a9d40",
  "args": [
    "0xDf588d28b10f5a801C19825D424780fc49b5EcD5",
    "0xC22a79eBA640940ABB6dF0f7982cc119578E11De",
    "const { data } = await Functions.makeHttpRequest({\r\n  url: `https://swapi.dev/api/people/1`,\r\n});\r\n\r\nreturn Functions.encodeString(data.name);"
  ],
  "numDeployments": 10,
  "solcInputHash": "97fd2b52eacc5777eee4b1290572a9c5",
  "bytecode": "0x60c06040523480156200001157600080fd5b506040516200346438038062003464833981016040819052620000349162000155565b6040518060400160405280600381526020016214195d60ea1b8152506040518060400160405280600381526020016214115560ea1b81525081600090816200007d9190620002c9565b5060016200008c8282620002c9565b5050506001600160a01b038316608052604051829082903090620000b090620000f2565b620000be9392919062000395565b604051809103906000f080158015620000db573d6000803e3d6000fd5b506001600160a01b031660a05250620003fc915050565b6112cc806200219883390190565b6001600160a01b03811681146200011657600080fd5b50565b634e487b7160e01b600052604160045260246000fd5b60005b838110156200014c57818101518382015260200162000132565b50506000910152565b6000806000606084860312156200016b57600080fd5b8351620001788162000100565b60208501519093506200018b8162000100565b60408501519092506001600160401b0380821115620001a957600080fd5b818601915086601f830112620001be57600080fd5b815181811115620001d357620001d362000119565b604051601f8201601f19908116603f01168101908382118183101715620001fe57620001fe62000119565b816040528281528960208487010111156200021857600080fd5b6200022b8360208301602088016200012f565b80955050505050509250925092565b600181811c908216806200024f57607f821691505b6020821081036200027057634e487b7160e01b600052602260045260246000fd5b50919050565b601f821115620002c457600081815260208120601f850160051c810160208610156200029f5750805b601f850160051c820191505b81811015620002c057828155600101620002ab565b5050505b505050565b81516001600160401b03811115620002e557620002e562000119565b620002fd81620002f684546200023a565b8462000276565b602080601f8311600181146200033557600084156200031c5750858301515b600019600386901b1c1916600185901b178555620002c0565b600085815260208120601f198616915b82811015620003665788860151825594840194600190910190840162000345565b5085821015620003855787850151600019600388901b60f8161c191681555b5050505050600190811b01905550565b600060018060a01b0380861683527166756e2d706f6c79676f6e2d616d6f792d3160701b6020840152608060408401528451806080850152620003e08160a08601602089016200012f565b9316606083015250601f91909101601f19160160a00192915050565b60805160a051611d5362000445600039600081816101d90152818161020201526107880152600081816106710152818161094401528181610afc0152610c780152611d536000f3fe608060405234801561001057600080fd5b50600436106101425760003560e01c806370a08231116100b8578063b88d4fde1161007c578063b88d4fde146102d2578063bc968326146102e5578063c1509366146102ed578063c87b56dd14610300578063ce4af83114610313578063e985e9c51461032657600080fd5b806370a082311461027e57806395d89b4114610291578063a22cb46514610299578063b3f4cde6146102ac578063b7b4d7cd146102bf57600080fd5b806309699c411161010a57806309699c41146101d7578063218ecc4c146101fd57806323b872dd14610224578063322225871461023757806342842e0e146102585780636352211e1461026b57600080fd5b806301ffc9a71461014757806303167fd81461016f57806306fdde0314610184578063081812fc14610199578063095ea7b3146101c4575b600080fd5b61015a6101553660046115bb565b610362565b60405190151581526020015b60405180910390f35b61018261017d3660046115d8565b6103b4565b005b61018c61045a565b6040516101669190611641565b6101ac6101a73660046115d8565b6104ec565b6040516001600160a01b039091168152602001610166565b6101826101d2366004611670565b610513565b7f00000000000000000000000000000000000000000000000000000000000000006101ac565b6101ac7f000000000000000000000000000000000000000000000000000000000000000081565b61018261023236600461169a565b610628565b61024a61024536600461174a565b610659565b604051908152602001610166565b61018261026636600461169a565b610810565b6101ac6102793660046115d8565b61082b565b61024a61028c36600461179b565b61088b565b61018c610911565b6101826102a73660046117c4565b610920565b6101826102ba3660046117fb565b61092f565b6101826102cd3660046118be565b610a70565b6101826102e036600461192b565b610aaf565b60065461024a565b6101826102fb366004611993565b610ae7565b61018c61030e3660046115d8565b610bd3565b6101826103213660046119fc565b610c63565b61015a610334366004611a1f565b6001600160a01b03918216600090815260056020908152604080832093909416825291909152205460ff1690565b60006001600160e01b031982166380ac58cd60e01b148061039357506001600160e01b03198216635b5e139f60e01b145b806103ae57506301ffc9a760e01b6001600160e01b03198316145b92915050565b336103be8261082b565b6001600160a01b03161461042e5760405162461bcd60e51b815260206004820152602c60248201527f4f6e6c7920746865206f776e6572206f6620746865207065742063616e20726560448201526b62756b65206120636c61696d60a01b60648201526084015b60405180910390fd5b600090815260076020526040902080546001600160a01b03199081168255600190910180549091169055565b60606000805461046990611a49565b80601f016020809104026020016040519081016040528092919081815260200182805461049590611a49565b80156104e25780601f106104b7576101008083540402835291602001916104e2565b820191906000526020600020905b8154815290600101906020018083116104c557829003601f168201915b5050505050905090565b60006104f782610dae565b506000908152600460205260409020546001600160a01b031690565b600061051e8261082b565b9050806001600160a01b0316836001600160a01b03160361058b5760405162461bcd60e51b815260206004820152602160248201527f4552433732313a20617070726f76616c20746f2063757272656e74206f776e656044820152603960f91b6064820152608401610425565b336001600160a01b03821614806105a757506105a78133610334565b6106195760405162461bcd60e51b815260206004820152603d60248201527f4552433732313a20617070726f76652063616c6c6572206973206e6f7420746f60448201527f6b656e206f776e6572206f7220617070726f76656420666f7220616c6c0000006064820152608401610425565b6106238383610e10565b505050565b6106323382610e7e565b61064e5760405162461bcd60e51b815260040161042590611a83565b610623838383610efc565b604051630b91eaf960e01b81523360048201526000907f00000000000000000000000000000000000000000000000000000000000000006001600160a01b031690630b91eaf990602401602060405180830381865afa1580156106c0573d6000803e3d6000fd5b505050506040513d601f19601f820116820180604052508101906106e49190611ad0565b6107005760405162461bcd60e51b815260040161042590611aed565b8351602080860151604080516001600160a01b0394851681529184169282019290925291851682820152517f434ca30d6535ee3e62fafdfb0997d39bd9df9de67201e6633167c3e5d2d5dbb09181900360600190a1600680546000918261076683611b5b565b9091555060405163c7cc6c8f60e01b815263ffffffff851660048201529091507f00000000000000000000000000000000000000000000000000000000000000006001600160a01b03169063c7cc6c8f906024016020604051808303816000875af11580156107d9573d6000803e3d6000fd5b505050506040513d601f19601f820116820180604052508101906107fd9190611b82565b506108088482611060565b949350505050565b61062383838360405180602001604052806000815250610aaf565b6000818152600260205260408120546001600160a01b0316806103ae5760405162461bcd60e51b8152602060048201526018602482015277115490cdcc8c4e881a5b9d985b1a59081d1bdad95b88125160421b6044820152606401610425565b60006001600160a01b0382166108f55760405162461bcd60e51b815260206004820152602960248201527f4552433732313a2061646472657373207a65726f206973206e6f7420612076616044820152683634b21037bbb732b960b91b6064820152608401610425565b506001600160a01b031660009081526003602052604090205490565b60606001805461046990611a49565b61092b33838361107a565b5050565b604051630b91eaf960e01b81523360048201527f00000000000000000000000000000000000000000000000000000000000000006001600160a01b031690630b91eaf990602401602060405180830381865afa158015610993573d6000803e3d6000fd5b505050506040513d601f19601f820116820180604052508101906109b79190611ad0565b6109d35760405162461bcd60e51b815260040161042590611aed565b805160208201516040517f4ee171bc2a0548d324eb195b5c98f36737f5c0acb3fb7caaa422cc98c77f20a492610a22928683526001600160a01b03918216602084015216604082015260600190565b60405180910390a16000918252600760209081526040909220815181546001600160a01b039182166001600160a01b0319918216178355929093015160019091018054919093169116179055565b827f7bab0ec163b5c132c72b8146ac4d6e067e82ed58f8b131150aa71c92589115628383604051610aa2929190611b9b565b60405180910390a2505050565b610ab93383610e7e565b610ad55760405162461bcd60e51b815260040161042590611a83565b610ae184848484611148565b50505050565b604051630b91eaf960e01b81523360048201527f00000000000000000000000000000000000000000000000000000000000000006001600160a01b031690630b91eaf990602401602060405180830381865afa158015610b4b573d6000803e3d6000fd5b505050506040513d601f19601f82011682018060405250810190610b6f9190611ad0565b610b8b5760405162461bcd60e51b815260040161042590611aed565b825160208401516040517f0afcb2330aa352e0ab4d7d0f9e284f0f2742ea037b2fba02198744e6484069dc92610bc692909186908690611bc9565b60405180910390a1505050565b6060610bde82610dae565b6000610c116040805180820190915260148152736d6574617365727669636520757269206865726560601b602082015290565b90506000815111610c315760405180602001604052806000815250610c5c565b80610c3b8461117b565b604051602001610c4c929190611c07565b6040516020818303038152906040525b9392505050565b604051630b91eaf960e01b81523360048201527f00000000000000000000000000000000000000000000000000000000000000006001600160a01b031690630b91eaf990602401602060405180830381865afa158015610cc7573d6000803e3d6000fd5b505050506040513d601f19601f82011682018060405250810190610ceb9190611ad0565b610d075760405162461bcd60e51b815260040161042590611aed565b6000828152600760205260409020600101546001600160a01b03828116911614610d815760405162461bcd60e51b815260206004820152602560248201527f4f6e6c792074686520636c61696d65652063616e207769746864726177206120604482015264636c61696d60d81b6064820152608401610425565b50600090815260076020526040902080546001600160a01b03199081168255600190910180549091169055565b6000818152600260205260409020546001600160a01b0316610e0d5760405162461bcd60e51b8152602060048201526018602482015277115490cdcc8c4e881a5b9d985b1a59081d1bdad95b88125160421b6044820152606401610425565b50565b600081815260046020526040902080546001600160a01b0319166001600160a01b0384169081179091558190610e458261082b565b6001600160a01b03167f8c5be1e5ebec7d5bd14f71427d1e84f3dd0314c0f7b2291e5b200ac8c7c3b92560405160405180910390a45050565b600080610e8a8361082b565b9050806001600160a01b0316846001600160a01b03161480610ed157506001600160a01b0380821660009081526005602090815260408083209388168352929052205460ff165b806108085750836001600160a01b0316610eea846104ec565b6001600160a01b031614949350505050565b826001600160a01b0316610f0f8261082b565b6001600160a01b031614610f355760405162461bcd60e51b815260040161042590611c36565b6001600160a01b038216610f975760405162461bcd60e51b8152602060048201526024808201527f4552433732313a207472616e7366657220746f20746865207a65726f206164646044820152637265737360e01b6064820152608401610425565b826001600160a01b0316610faa8261082b565b6001600160a01b031614610fd05760405162461bcd60e51b815260040161042590611c36565b600081815260046020908152604080832080546001600160a01b03199081169091556001600160a01b0387811680865260038552838620805460001901905590871680865283862080546001019055868652600290945282852080549092168417909155905184937fddf252ad1be2c89b69c2b068fc378daa952ba7f163c4a11628f55a4df523b3ef91a4505050565b61092b82826040518060200160405280600081525061120e565b816001600160a01b0316836001600160a01b0316036110db5760405162461bcd60e51b815260206004820152601960248201527f4552433732313a20617070726f766520746f2063616c6c6572000000000000006044820152606401610425565b6001600160a01b03838116600081815260056020908152604080832094871680845294825291829020805460ff191686151590811790915591519182527f17307eab39ab6107e8899845ad3d59bd9653f200f220920489ca2b5937696c31910160405180910390a3505050565b611153848484610efc565b61115f84848484611241565b610ae15760405162461bcd60e51b815260040161042590611c7b565b6060600061118883611342565b600101905060008167ffffffffffffffff8111156111a8576111a86116d6565b6040519080825280601f01601f1916602001820160405280156111d2576020820181803683370190505b5090508181016020015b600019016f181899199a1a9b1b9c1cb0b131b232b360811b600a86061a8153600a85049450846111dc57509392505050565b611218838361141a565b6112256000848484611241565b6106235760405162461bcd60e51b815260040161042590611c7b565b60006001600160a01b0384163b1561133757604051630a85bd0160e11b81526001600160a01b0385169063150b7a0290611285903390899088908890600401611ccd565b6020604051808303816000875af19250505080156112c0575060408051601f3d908101601f191682019092526112bd91810190611d00565b60015b61131d573d8080156112ee576040519150601f19603f3d011682016040523d82523d6000602084013e6112f3565b606091505b5080516000036113155760405162461bcd60e51b815260040161042590611c7b565b805181602001fd5b6001600160e01b031916630a85bd0160e11b149050610808565b506001949350505050565b60008072184f03e93ff9f4daa797ed6e38ed64bf6a1f0160401b83106113815772184f03e93ff9f4daa797ed6e38ed64bf6a1f0160401b830492506040015b6d04ee2d6d415b85acef810000000083106113ad576d04ee2d6d415b85acef8100000000830492506020015b662386f26fc1000083106113cb57662386f26fc10000830492506010015b6305f5e10083106113e3576305f5e100830492506008015b61271083106113f757612710830492506004015b60648310611409576064830492506002015b600a83106103ae5760010192915050565b6001600160a01b0382166114705760405162461bcd60e51b815260206004820181905260248201527f4552433732313a206d696e7420746f20746865207a65726f20616464726573736044820152606401610425565b6000818152600260205260409020546001600160a01b0316156114d55760405162461bcd60e51b815260206004820152601c60248201527f4552433732313a20746f6b656e20616c7265616479206d696e746564000000006044820152606401610425565b6000818152600260205260409020546001600160a01b03161561153a5760405162461bcd60e51b815260206004820152601c60248201527f4552433732313a20746f6b656e20616c7265616479206d696e746564000000006044820152606401610425565b6001600160a01b038216600081815260036020908152604080832080546001019055848352600290915280822080546001600160a01b0319168417905551839291907fddf252ad1be2c89b69c2b068fc378daa952ba7f163c4a11628f55a4df523b3ef908290a45050565b6001600160e01b031981168114610e0d57600080fd5b6000602082840312156115cd57600080fd5b8135610c5c816115a5565b6000602082840312156115ea57600080fd5b5035919050565b60005b8381101561160c5781810151838201526020016115f4565b50506000910152565b6000815180845261162d8160208601602086016115f1565b601f01601f19169290920160200192915050565b602081526000610c5c6020830184611615565b80356001600160a01b038116811461166b57600080fd5b919050565b6000806040838503121561168357600080fd5b61168c83611654565b946020939093013593505050565b6000806000606084860312156116af57600080fd5b6116b884611654565b92506116c660208501611654565b9150604084013590509250925092565b634e487b7160e01b600052604160045260246000fd5b6000604082840312156116fe57600080fd5b6040516040810181811067ffffffffffffffff82111715611721576117216116d6565b60405290508061173083611654565b815261173e60208401611654565b60208201525092915050565b60008060006080848603121561175f57600080fd5b61176985856116ec565b925061177760408501611654565b9150606084013563ffffffff8116811461179057600080fd5b809150509250925092565b6000602082840312156117ad57600080fd5b610c5c82611654565b8015158114610e0d57600080fd5b600080604083850312156117d757600080fd5b6117e083611654565b915060208301356117f0816117b6565b809150509250929050565b6000806060838503121561180e57600080fd5b8235915061181f84602085016116ec565b90509250929050565b600067ffffffffffffffff80841115611843576118436116d6565b604051601f8501601f19908116603f0116810190828211818310171561186b5761186b6116d6565b8160405280935085815286868601111561188457600080fd5b858560208301376000602087830101525050509392505050565b600082601f8301126118af57600080fd5b610c5c83833560208501611828565b6000806000606084860312156118d357600080fd5b83359250602084013567ffffffffffffffff808211156118f257600080fd5b6118fe8783880161189e565b9350604086013591508082111561191457600080fd5b506119218682870161189e565b9150509250925092565b6000806000806080858703121561194157600080fd5b61194a85611654565b935061195860208601611654565b925060408501359150606085013567ffffffffffffffff81111561197b57600080fd5b6119878782880161189e565b91505092959194509250565b6000806000608084860312156119a857600080fd5b6119b285856116ec565b92506119c060408501611654565b9150606084013567ffffffffffffffff8111156119dc57600080fd5b8401601f810186136119ed57600080fd5b61192186823560208401611828565b60008060408385031215611a0f57600080fd5b8235915061181f60208401611654565b60008060408385031215611a3257600080fd5b611a3b83611654565b915061181f60208401611654565b600181811c90821680611a5d57607f821691505b602082108103611a7d57634e487b7160e01b600052602260045260246000fd5b50919050565b6020808252602d908201527f4552433732313a2063616c6c6572206973206e6f7420746f6b656e206f776e6560408201526c1c881bdc88185c1c1c9bdd9959609a1b606082015260800190565b600060208284031215611ae257600080fd5b8151610c5c816117b6565b60208082526048908201527f4f6e6c79206120726567697374657265642075736572206f6620612076616c6960408201527f6461746564206f7267616e697a6174696f6e2063616e20757365207468697320606082015267333ab731ba34b7b760c11b608082015260a00190565b600060018201611b7b57634e487b7160e01b600052601160045260246000fd5b5060010190565b600060208284031215611b9457600080fd5b5051919050565b604081526000611bae6040830185611615565b8281036020840152611bc08185611615565b95945050505050565b6001600160a01b038581168252848116602083015283166040820152608060608201819052600090611bfd90830184611615565b9695505050505050565b60008351611c198184602088016115f1565b835190830190611c2d8183602088016115f1565b01949350505050565b60208082526025908201527f4552433732313a207472616e736665722066726f6d20696e636f72726563742060408201526437bbb732b960d91b606082015260800190565b60208082526032908201527f4552433732313a207472616e7366657220746f206e6f6e20455243373231526560408201527131b2b4bb32b91034b6b83632b6b2b73a32b960711b606082015260800190565b6001600160a01b0385811682528416602082015260408101839052608060608201819052600090611bfd90830184611615565b600060208284031215611d1257600080fd5b8151610c5c816115a556fea264697066735822122043f264d5b6654d12d85314229db97aa79dba5d3fc445026029cbc0a20397750d64736f6c6343000813003360c06040523480156200001157600080fd5b50604051620012cc380380620012cc8339810160408190526200003491620000ac565b6001600160a01b0384166080526001839055600062000054838262000242565b506001600160a01b031660a052506200030e915050565b6001600160a01b03811681146200008157600080fd5b50565b634e487b7160e01b600052604160045260246000fd5b8051620000a7816200006b565b919050565b60008060008060808587031215620000c357600080fd5b8451620000d0816200006b565b60208681015160408801519296509450906001600160401b0380821115620000f757600080fd5b818801915088601f8301126200010c57600080fd5b81518181111562000121576200012162000084565b604051601f8201601f19908116603f011681019083821181831017156200014c576200014c62000084565b816040528281528b868487010111156200016557600080fd5b600093505b828410156200018957848401860151818501870152928501926200016a565b6000868483010152809750505050505050620001a8606086016200009a565b905092959194509250565b600181811c90821680620001c857607f821691505b602082108103620001e957634e487b7160e01b600052602260045260246000fd5b50919050565b601f8211156200023d57600081815260208120601f850160051c81016020861015620002185750805b601f850160051c820191505b81811015620002395782815560010162000224565b5050505b505050565b81516001600160401b038111156200025e576200025e62000084565b62000276816200026f8454620001b3565b84620001ef565b602080601f831160018114620002ae5760008415620002955750858301515b600019600386901b1c1916600185901b17855562000239565b600085815260208120601f198616915b82811015620002df57888601518255948401946001909101908401620002be565b5085821015620002fe5787850151600019600388901b60f8161c191681555b5050505050600190811b01905550565b60805160a051610f926200033a6000396000610216015260008181608001526105e10152610f926000f3fe608060405234801561001057600080fd5b50600436106100365760003560e01c80630ca761751461003b578063c7cc6c8f14610050575b600080fd5b61004e610049366004610c07565b610075565b005b61006361005e366004610c74565b6100f9565b60405190815260200160405180910390f35b336001600160a01b037f000000000000000000000000000000000000000000000000000000000000000016146100be5760405163c6829f8360e01b815260040160405180910390fd5b6100c98383836101ff565b60405183907f85e1543bf2f84fe80c6badbce3648c8539ad1df4d2b3d822938ca0538be727e690600090a2505050565b600061013c6040805160e0810190915280600081526020016000815260200160008152602001606081526020016060815260200160608152602001606081525090565b6101de6000806000805461014f90610c9a565b80601f016020809104026020016040519081016040528092919081815260200182805461017b90610c9a565b80156101c85780601f1061019d576101008083540402835291602001916101c8565b820191906000526020600020905b8154815290600101906020018083116101ab57829003601f168201915b505050505084610286909392919063ffffffff16565b60006101f76101ec83610304565b60e7866001546105dc565b949350505050565b60405163b7b4d7cd60e01b81526001600160a01b037f0000000000000000000000000000000000000000000000000000000000000000169063b7b4d7cd9061024f90869086908690600401610d1a565b600060405180830381600087803b15801561026957600080fd5b505af115801561027d573d6000803e3d6000fd5b50505050505050565b80516000036102a8576040516322ce3edd60e01b815260040160405180910390fd5b838360028111156102bb576102bb610d4f565b908160028111156102ce576102ce610d4f565b905250604084018280156102e4576102e4610d4f565b908180156102f4576102f4610d4f565b9052506060909301929092525050565b606060006103136101006106ae565b905061034c6040518060400160405280600c81526020016b31b7b232a637b1b0ba34b7b760a11b815250826106cf90919063ffffffff16565b825161036a90600281111561036357610363610d4f565b82906106ed565b6040805180820190915260088152676c616e677561676560c01b60208201526103949082906106cf565b60408301516103ab90801561036357610363610d4f565b604080518082019091526006815265736f7572636560d01b60208201526103d39082906106cf565b60608301516103e39082906106cf565b60a08301515115610477576040805180820190915260048152636172677360e01b60208201526104149082906106cf565b61041d8161072a565b60005b8360a001515181101561046d5761045d8460a00151828151811061044657610446610d65565b6020026020010151836106cf90919063ffffffff16565b61046681610d91565b9050610420565b506104778161074e565b6080830151511561053b5760008360200151600281111561049a5761049a610d4f565b036104b85760405163a80d31f760e01b815260040160405180910390fd5b60408051808201909152600f81526e39b2b1b932ba39a637b1b0ba34b7b760891b60208201526104e99082906106cf565b6105028360200151600281111561036357610363610d4f565b6040805180820190915260078152667365637265747360c81b602082015261052b9082906106cf565b608083015161053b90829061076c565b60c083015151156105d45760408051808201909152600981526862797465734172677360b81b60208201526105719082906106cf565b61057a8161072a565b60005b8360c00151518110156105ca576105ba8460c0015182815181106105a3576105a3610d65565b60200260200101518361076c90919063ffffffff16565b6105c381610d91565b905061057d565b506105d48161074e565b515192915050565b6000807f00000000000000000000000000000000000000000000000000000000000000006001600160a01b031663461d27628688600188886040518663ffffffff1660e01b8152600401610634959493929190610daa565b6020604051808303816000875af1158015610653573d6000803e3d6000fd5b505050506040513d601f19601f820116820180604052508101906106779190610df4565b60405190915081907f1131472297a800fee664d1d89cfa8f7676ff07189ecc53f80bbb5f4969099db890600090a295945050505050565b6106b6610b2f565b80516106c29083610779565b5060006020820152919050565b6106dc82600383516107f3565b81516106e8908261091a565b505050565b81516106fa9060c2610942565b50610726828260405160200161071291815260200190565b60405160208183030381529060405261076c565b5050565b6107358160046109ab565b6001816020018181516107489190610e0d565b90525050565b6107598160076109ab565b6001816020018181516107489190610e20565b6106dc82600283516107f3565b604080518082019091526060815260006020820152610799602083610e33565b156107c1576107a9602083610e33565b6107b4906020610e20565b6107be9083610e0d565b91505b6020808401839052604051808552600081529081840101818110156107e557600080fd5b604052508290505b92915050565b60178167ffffffffffffffff161161082057825161081a9060e0600585901b168317610942565b50505050565b60ff8167ffffffffffffffff1611610862578251610849906018611fe0600586901b1617610942565b50825161081a9067ffffffffffffffff831660016109c2565b61ffff8167ffffffffffffffff16116108a557825161088c906019611fe0600586901b1617610942565b50825161081a9067ffffffffffffffff831660026109c2565b63ffffffff8167ffffffffffffffff16116108ea5782516108d190601a611fe0600586901b1617610942565b50825161081a9067ffffffffffffffff831660046109c2565b825161090190601b611fe0600586901b1617610942565b50825161081a9067ffffffffffffffff831660086109c2565b60408051808201909152606081526000602082015261093b83838451610a47565b9392505050565b6040805180820190915260608152600060208201528251516000610967826001610e0d565b9050846020015182106109885761098885610983836002610e55565b610b18565b84516020838201018581535080518211156109a1578181525b5093949350505050565b81516106e890601f611fe0600585901b1617610942565b60408051808201909152606081526000602082015283515160006109e68285610e0d565b90508560200151811115610a0357610a0386610983836002610e55565b60006001610a1386610100610f50565b610a1d9190610e20565b90508651828101878319825116178152508051831115610a3b578281525b50959695505050505050565b6040805180820190915260608152600060208201528251821115610a6a57600080fd5b8351516000610a798483610e0d565b90508560200151811115610a9657610a9686610983836002610e55565b855180518382016020019160009180851115610ab0578482525b505050602086015b60208610610af05780518252610acf602083610e0d565b9150610adc602082610e0d565b9050610ae9602087610e20565b9550610ab8565b51815160001960208890036101000a0190811690199190911617905250849150509392505050565b8151610b248383610779565b5061081a838261091a565b6040518060400160405280610b57604051806040016040528060608152602001600081525090565b8152602001600081525090565b634e487b7160e01b600052604160045260246000fd5b600082601f830112610b8b57600080fd5b813567ffffffffffffffff80821115610ba657610ba6610b64565b604051601f8301601f19908116603f01168101908282118183101715610bce57610bce610b64565b81604052838152866020858801011115610be757600080fd5b836020870160208301376000602085830101528094505050505092915050565b600080600060608486031215610c1c57600080fd5b83359250602084013567ffffffffffffffff80821115610c3b57600080fd5b610c4787838801610b7a565b93506040860135915080821115610c5d57600080fd5b50610c6a86828701610b7a565b9150509250925092565b600060208284031215610c8657600080fd5b813563ffffffff8116811461093b57600080fd5b600181811c90821680610cae57607f821691505b602082108103610cce57634e487b7160e01b600052602260045260246000fd5b50919050565b6000815180845260005b81811015610cfa57602081850181015186830182015201610cde565b506000602082860101526020601f19601f83011685010191505092915050565b838152606060208201526000610d336060830185610cd4565b8281036040840152610d458185610cd4565b9695505050505050565b634e487b7160e01b600052602160045260246000fd5b634e487b7160e01b600052603260045260246000fd5b634e487b7160e01b600052601160045260246000fd5b600060018201610da357610da3610d7b565b5060010190565b67ffffffffffffffff8616815260a060208201526000610dcd60a0830187610cd4565b61ffff9590951660408301525063ffffffff92909216606083015260809091015292915050565b600060208284031215610e0657600080fd5b5051919050565b808201808211156107ed576107ed610d7b565b818103818111156107ed576107ed610d7b565b600082610e5057634e487b7160e01b600052601260045260246000fd5b500690565b80820281158282048414176107ed576107ed610d7b565b600181815b80851115610ea7578160001904821115610e8d57610e8d610d7b565b80851615610e9a57918102915b93841c9390800290610e71565b509250929050565b600082610ebe575060016107ed565b81610ecb575060006107ed565b8160018114610ee15760028114610eeb57610f07565b60019150506107ed565b60ff841115610efc57610efc610d7b565b50506001821b6107ed565b5060208310610133831016604e8410600b8410161715610f2a575081810a6107ed565b610f348383610e6c565b8060001904821115610f4857610f48610d7b565b029392505050565b600061093b8383610eaf56fea2646970667358221220ee2384b2b69f7839492503921aacd2bd215c85eb295693d661b997b1f4f6c43264736f6c63430008130033",
  "devdoc": {
    "events": {
      "Approval(address,address,uint256)": {
        "details": "Emitted when `owner` enables `approved` to manage the `tokenId` token."
      },
      "ApprovalForAll(address,address,bool)": {
        "details": "Emitted when `owner` enables or disables (`approved`) `operator` to manage all of its assets."
      },
      "Transfer(address,address,uint256)": {
        "details": "Emitted when `tokenId` token is transferred from `from` to `to`."
      }
    },
    "kind": "dev",
    "methods": {
      "approve(address,uint256)": {
        "details": "See {IERC721-approve}."
      },
      "balanceOf(address)": {
        "details": "See {IERC721-balanceOf}."
      },
      "getApproved(uint256)": {
        "details": "See {IERC721-getApproved}."
      },
      "isApprovedForAll(address,address)": {
        "details": "See {IERC721-isApprovedForAll}."
      },
      "name()": {
        "details": "See {IERC721Metadata-name}."
      },
      "ownerOf(uint256)": {
        "details": "See {IERC721-ownerOf}."
      },
      "safeTransferFrom(address,address,uint256)": {
        "details": "See {IERC721-safeTransferFrom}."
      },
      "safeTransferFrom(address,address,uint256,bytes)": {
        "details": "See {IERC721-safeTransferFrom}."
      },
      "setApprovalForAll(address,bool)": {
        "details": "See {IERC721-setApprovalForAll}."
      },
      "supportsInterface(bytes4)": {
        "details": "See {IERC165-supportsInterface}."
      },
      "symbol()": {
        "details": "See {IERC721Metadata-symbol}."
      },
      "tokenURI(uint256)": {
        "details": "See {IERC721Metadata-tokenURI}."
      },
      "transferFrom(address,address,uint256)": {
        "details": "See {IERC721-transferFrom}."
      }
    },
    "version": 1
  },
  "userdoc": {
    "kind": "user",
    "methods": {},
    "version": 1
  },
  "storageLayout": {
    "storage": [
      {
        "astId": 2092,
        "contract": "contracts/Pet.sol:Pet",
        "label": "_name",
        "offset": 0,
        "slot": "0",
        "type": "t_string_storage"
      },
      {
        "astId": 2094,
        "contract": "contracts/Pet.sol:Pet",
        "label": "_symbol",
        "offset": 0,
        "slot": "1",
        "type": "t_string_storage"
      },
      {
        "astId": 2098,
        "contract": "contracts/Pet.sol:Pet",
        "label": "_owners",
        "offset": 0,
        "slot": "2",
        "type": "t_mapping(t_uint256,t_address)"
      },
      {
        "astId": 2102,
        "contract": "contracts/Pet.sol:Pet",
        "label": "_balances",
        "offset": 0,
        "slot": "3",
        "type": "t_mapping(t_address,t_uint256)"
      },
      {
        "astId": 2106,
        "contract": "contracts/Pet.sol:Pet",
        "label": "_tokenApprovals",
        "offset": 0,
        "slot": "4",
        "type": "t_mapping(t_uint256,t_address)"
      },
      {
        "astId": 2112,
        "contract": "contracts/Pet.sol:Pet",
        "label": "_operatorApprovals",
        "offset": 0,
        "slot": "5",
        "type": "t_mapping(t_address,t_mapping(t_address,t_bool))"
      },
      {
        "astId": 5368,
        "contract": "contracts/Pet.sol:Pet",
        "label": "_nextTokenId",
        "offset": 0,
        "slot": "6",
        "type": "t_uint256"
      },
      {
        "astId": 5379,
        "contract": "contracts/Pet.sol:Pet",
        "label": "_foundClaimMap",
        "offset": 0,
        "slot": "7",
        "type": "t_mapping(t_uint256,t_struct(OrgAffilliation)5740_storage)"
      }
    ],
    "types": {
      "t_address": {
        "encoding": "inplace",
        "label": "address",
        "numberOfBytes": "20"
      },
      "t_bool": {
        "encoding": "inplace",
        "label": "bool",
        "numberOfBytes": "1"
      },
      "t_mapping(t_address,t_bool)": {
        "encoding": "mapping",
        "key": "t_address",
        "label": "mapping(address => bool)",
        "numberOfBytes": "32",
        "value": "t_bool"
      },
      "t_mapping(t_address,t_mapping(t_address,t_bool))": {
        "encoding": "mapping",
        "key": "t_address",
        "label": "mapping(address => mapping(address => bool))",
        "numberOfBytes": "32",
        "value": "t_mapping(t_address,t_bool)"
      },
      "t_mapping(t_address,t_uint256)": {
        "encoding": "mapping",
        "key": "t_address",
        "label": "mapping(address => uint256)",
        "numberOfBytes": "32",
        "value": "t_uint256"
      },
      "t_mapping(t_uint256,t_address)": {
        "encoding": "mapping",
        "key": "t_uint256",
        "label": "mapping(uint256 => address)",
        "numberOfBytes": "32",
        "value": "t_address"
      },
      "t_mapping(t_uint256,t_struct(OrgAffilliation)5740_storage)": {
        "encoding": "mapping",
        "key": "t_uint256",
        "label": "mapping(uint256 => struct OrgAffilliation)",
        "numberOfBytes": "32",
        "value": "t_struct(OrgAffilliation)5740_storage"
      },
      "t_string_storage": {
        "encoding": "bytes",
        "label": "string",
        "numberOfBytes": "32"
      },
      "t_struct(OrgAffilliation)5740_storage": {
        "encoding": "inplace",
        "label": "struct OrgAffilliation",
        "members": [
          {
            "astId": 5737,
            "contract": "contracts/Pet.sol:Pet",
            "label": "org",
            "offset": 0,
            "slot": "0",
            "type": "t_address"
          },
          {
            "astId": 5739,
            "contract": "contracts/Pet.sol:Pet",
            "label": "claimee",
            "offset": 0,
            "slot": "1",
            "type": "t_address"
          }
        ],
        "numberOfBytes": "64"
      },
      "t_uint256": {
        "encoding": "inplace",
        "label": "uint256",
        "numberOfBytes": "32"
      }
    }
  }
}