{
  "address": "0xf03b4d9FbfDa3d9EaD7887a7772eC2B69AD2Cc66",
  "abi": [
    {
      "inputs": [
        {
          "internalType": "contract OrganizationRegistry",
          "name": "orgRegistry",
          "type": "address"
        }
      ],
      "stateMutability": "nonpayable",
      "type": "constructor"
    },
    {
      "anonymous": false,
      "inputs": [
        {
          "indexed": true,
          "internalType": "address",
          "name": "owner",
          "type": "address"
        },
        {
          "indexed": true,
          "internalType": "address",
          "name": "approved",
          "type": "address"
        },
        {
          "indexed": true,
          "internalType": "uint256",
          "name": "tokenId",
          "type": "uint256"
        }
      ],
      "name": "Approval",
      "type": "event"
    },
    {
      "anonymous": false,
      "inputs": [
        {
          "indexed": true,
          "internalType": "address",
          "name": "owner",
          "type": "address"
        },
        {
          "indexed": true,
          "internalType": "address",
          "name": "operator",
          "type": "address"
        },
        {
          "indexed": false,
          "internalType": "bool",
          "name": "approved",
          "type": "bool"
        }
      ],
      "name": "ApprovalForAll",
      "type": "event"
    },
    {
      "anonymous": false,
      "inputs": [
        {
          "indexed": false,
          "internalType": "uint256",
          "name": "tokenId",
          "type": "uint256"
        },
        {
          "indexed": false,
          "internalType": "address",
          "name": "orgAffiliation",
          "type": "address"
        },
        {
          "indexed": false,
          "internalType": "address",
          "name": "claimee",
          "type": "address"
        }
      ],
      "name": "FoundClaimMade",
      "type": "event"
    },
    {
      "anonymous": false,
      "inputs": [
        {
          "indexed": false,
          "internalType": "address",
          "name": "orgAffiliation",
          "type": "address"
        },
        {
          "indexed": false,
          "internalType": "address",
          "name": "claimee",
          "type": "address"
        },
        {
          "indexed": false,
          "internalType": "address",
          "name": "prospectOwner",
          "type": "address"
        }
      ],
      "name": "MintClaimMade",
      "type": "event"
    },
    {
      "anonymous": false,
      "inputs": [
        {
          "indexed": true,
          "internalType": "address",
          "name": "from",
          "type": "address"
        },
        {
          "indexed": true,
          "internalType": "address",
          "name": "to",
          "type": "address"
        },
        {
          "indexed": true,
          "internalType": "uint256",
          "name": "tokenId",
          "type": "uint256"
        }
      ],
      "name": "Transfer",
      "type": "event"
    },
    {
      "inputs": [
        {
          "internalType": "address",
          "name": "to",
          "type": "address"
        },
        {
          "internalType": "uint256",
          "name": "tokenId",
          "type": "uint256"
        }
      ],
      "name": "approve",
      "outputs": [],
      "stateMutability": "nonpayable",
      "type": "function"
    },
    {
      "inputs": [
        {
          "internalType": "address",
          "name": "owner",
          "type": "address"
        }
      ],
      "name": "balanceOf",
      "outputs": [
        {
          "internalType": "uint256",
          "name": "",
          "type": "uint256"
        }
      ],
      "stateMutability": "view",
      "type": "function"
    },
    {
      "inputs": [
        {
          "internalType": "uint256",
          "name": "tokenId",
          "type": "uint256"
        },
        {
          "components": [
            {
              "internalType": "address",
              "name": "org",
              "type": "address"
            },
            {
              "internalType": "address",
              "name": "claimee",
              "type": "address"
            }
          ],
          "internalType": "struct OrgAffilliation",
          "name": "orgAff",
          "type": "tuple"
        }
      ],
      "name": "foundPetClaim",
      "outputs": [],
      "stateMutability": "nonpayable",
      "type": "function"
    },
    {
      "inputs": [
        {
          "internalType": "uint256",
          "name": "tokenId",
          "type": "uint256"
        }
      ],
      "name": "getApproved",
      "outputs": [
        {
          "internalType": "address",
          "name": "",
          "type": "address"
        }
      ],
      "stateMutability": "view",
      "type": "function"
    },
    {
      "inputs": [],
      "name": "getNextId",
      "outputs": [
        {
          "internalType": "uint256",
          "name": "",
          "type": "uint256"
        }
      ],
      "stateMutability": "view",
      "type": "function"
    },
    {
      "inputs": [
        {
          "internalType": "address",
          "name": "owner",
          "type": "address"
        },
        {
          "internalType": "address",
          "name": "operator",
          "type": "address"
        }
      ],
      "name": "isApprovedForAll",
      "outputs": [
        {
          "internalType": "bool",
          "name": "",
          "type": "bool"
        }
      ],
      "stateMutability": "view",
      "type": "function"
    },
    {
      "inputs": [
        {
          "components": [
            {
              "internalType": "address",
              "name": "org",
              "type": "address"
            },
            {
              "internalType": "address",
              "name": "claimee",
              "type": "address"
            }
          ],
          "internalType": "struct OrgAffilliation",
          "name": "orgAff",
          "type": "tuple"
        },
        {
          "internalType": "address",
          "name": "prospectOwner",
          "type": "address"
        }
      ],
      "name": "mint",
      "outputs": [
        {
          "internalType": "uint256",
          "name": "",
          "type": "uint256"
        }
      ],
      "stateMutability": "nonpayable",
      "type": "function"
    },
    {
      "inputs": [],
      "name": "name",
      "outputs": [
        {
          "internalType": "string",
          "name": "",
          "type": "string"
        }
      ],
      "stateMutability": "view",
      "type": "function"
    },
    {
      "inputs": [
        {
          "internalType": "uint256",
          "name": "tokenId",
          "type": "uint256"
        }
      ],
      "name": "ownerOf",
      "outputs": [
        {
          "internalType": "address",
          "name": "",
          "type": "address"
        }
      ],
      "stateMutability": "view",
      "type": "function"
    },
    {
      "inputs": [
        {
          "internalType": "uint256",
          "name": "tokenId",
          "type": "uint256"
        }
      ],
      "name": "rebukeClaim",
      "outputs": [],
      "stateMutability": "nonpayable",
      "type": "function"
    },
    {
      "inputs": [
        {
          "internalType": "address",
          "name": "from",
          "type": "address"
        },
        {
          "internalType": "address",
          "name": "to",
          "type": "address"
        },
        {
          "internalType": "uint256",
          "name": "tokenId",
          "type": "uint256"
        }
      ],
      "name": "safeTransferFrom",
      "outputs": [],
      "stateMutability": "nonpayable",
      "type": "function"
    },
    {
      "inputs": [
        {
          "internalType": "address",
          "name": "from",
          "type": "address"
        },
        {
          "internalType": "address",
          "name": "to",
          "type": "address"
        },
        {
          "internalType": "uint256",
          "name": "tokenId",
          "type": "uint256"
        },
        {
          "internalType": "bytes",
          "name": "data",
          "type": "bytes"
        }
      ],
      "name": "safeTransferFrom",
      "outputs": [],
      "stateMutability": "nonpayable",
      "type": "function"
    },
    {
      "inputs": [
        {
          "internalType": "address",
          "name": "operator",
          "type": "address"
        },
        {
          "internalType": "bool",
          "name": "approved",
          "type": "bool"
        }
      ],
      "name": "setApprovalForAll",
      "outputs": [],
      "stateMutability": "nonpayable",
      "type": "function"
    },
    {
      "inputs": [
        {
          "internalType": "bytes4",
          "name": "interfaceId",
          "type": "bytes4"
        }
      ],
      "name": "supportsInterface",
      "outputs": [
        {
          "internalType": "bool",
          "name": "",
          "type": "bool"
        }
      ],
      "stateMutability": "view",
      "type": "function"
    },
    {
      "inputs": [],
      "name": "symbol",
      "outputs": [
        {
          "internalType": "string",
          "name": "",
          "type": "string"
        }
      ],
      "stateMutability": "view",
      "type": "function"
    },
    {
      "inputs": [
        {
          "internalType": "uint256",
          "name": "tokenId",
          "type": "uint256"
        }
      ],
      "name": "tokenURI",
      "outputs": [
        {
          "internalType": "string",
          "name": "",
          "type": "string"
        }
      ],
      "stateMutability": "view",
      "type": "function"
    },
    {
      "inputs": [
        {
          "internalType": "address",
          "name": "from",
          "type": "address"
        },
        {
          "internalType": "address",
          "name": "to",
          "type": "address"
        },
        {
          "internalType": "uint256",
          "name": "tokenId",
          "type": "uint256"
        }
      ],
      "name": "transferFrom",
      "outputs": [],
      "stateMutability": "nonpayable",
      "type": "function"
    },
    {
      "inputs": [
        {
          "internalType": "uint256",
          "name": "tokenId",
          "type": "uint256"
        },
        {
          "internalType": "address",
          "name": "claimee",
          "type": "address"
        }
      ],
      "name": "withdrawClaim",
      "outputs": [],
      "stateMutability": "nonpayable",
      "type": "function"
    }
  ],
  "transactionHash": "0x510be15f582273c5cd66c0744dd408caf19b8e8a1c5ef9c9d6fadc2da7b9f417",
  "args": [
    "0xe3eD35F079bfC17B4D2486CCcf3ca571ac1E5f5c"
  ],
  "numDeployments": 4,
  "solcInputHash": "63ec87fb2a97c168f5e7a5e9007738b3",
  "bytecode": "0x60a06040523480156200001157600080fd5b5060405162001be038038062001be08339810160408190526200003491620000a1565b6040518060400160405280600381526020016214195d60ea1b8152506040518060400160405280600381526020016214115560ea1b81525081600090816200007d919062000178565b5060016200008c828262000178565b5050506001600160a01b031660805262000244565b600060208284031215620000b457600080fd5b81516001600160a01b0381168114620000cc57600080fd5b9392505050565b634e487b7160e01b600052604160045260246000fd5b600181811c90821680620000fe57607f821691505b6020821081036200011f57634e487b7160e01b600052602260045260246000fd5b50919050565b601f8211156200017357600081815260208120601f850160051c810160208610156200014e5750805b601f850160051c820191505b818110156200016f578281556001016200015a565b5050505b505050565b81516001600160401b03811115620001945762000194620000d3565b620001ac81620001a58454620000e9565b8462000125565b602080601f831160018114620001e45760008415620001cb5750858301515b600019600386901b1c1916600185901b1785556200016f565b600085815260208120601f198616915b828110156200021557888601518255948401946001909101908401620001f4565b5085821015620002345787850151600019600388901b60f8161c191681555b5050505050600190811b01905550565b6080516119726200026e600039600081816106d3015281816108120152610a1a01526119726000f3fe608060405234801561001057600080fd5b50600436106101165760003560e01c8063815b8c82116100a2578063b88d4fde11610071578063b88d4fde14610246578063bc96832614610259578063c87b56dd14610261578063ce4af83114610274578063e985e9c51461028757600080fd5b8063815b8c821461020557806395d89b4114610218578063a22cb46514610220578063b3f4cde61461023357600080fd5b8063095ea7b3116100e9578063095ea7b31461019857806323b872dd146101ab57806342842e0e146101be5780636352211e146101d157806370a08231146101e457600080fd5b806301ffc9a71461011b57806303167fd81461014357806306fdde0314610158578063081812fc1461016d575b600080fd5b61012e61012936600461135e565b6102c3565b60405190151581526020015b60405180910390f35b61015661015136600461137b565b610315565b005b6101606103bb565b60405161013a91906113e4565b61018061017b36600461137b565b61044d565b6040516001600160a01b03909116815260200161013a565b6101566101a6366004611413565b610474565b6101566101b936600461143d565b610589565b6101566101cc36600461143d565b6105ba565b6101806101df36600461137b565b6105d5565b6101f76101f2366004611479565b610635565b60405190815260200161013a565b6101f7610213366004611539565b6106bb565b6101606107df565b61015661022e36600461157b565b6107ee565b6101566102413660046115b2565b6107fd565b6101566102543660046115d6565b61093e565b6006546101f7565b61016061026f36600461137b565b610976565b610156610282366004611696565b610a05565b61012e6102953660046116b9565b6001600160a01b03918216600090815260056020908152604080832093909416825291909152205460ff1690565b60006001600160e01b031982166380ac58cd60e01b14806102f457506001600160e01b03198216635b5e139f60e01b145b8061030f57506301ffc9a760e01b6001600160e01b03198316145b92915050565b3361031f826105d5565b6001600160a01b03161461038f5760405162461bcd60e51b815260206004820152602c60248201527f4f6e6c7920746865206f776e6572206f6620746865207065742063616e20726560448201526b62756b65206120636c61696d60a01b60648201526084015b60405180910390fd5b600090815260076020526040902080546001600160a01b03199081168255600190910180549091169055565b6060600080546103ca906116e3565b80601f01602080910402602001604051908101604052809291908181526020018280546103f6906116e3565b80156104435780601f1061041857610100808354040283529160200191610443565b820191906000526020600020905b81548152906001019060200180831161042657829003601f168201915b5050505050905090565b600061045882610b50565b506000908152600460205260409020546001600160a01b031690565b600061047f826105d5565b9050806001600160a01b0316836001600160a01b0316036104ec5760405162461bcd60e51b815260206004820152602160248201527f4552433732313a20617070726f76616c20746f2063757272656e74206f776e656044820152603960f91b6064820152608401610386565b336001600160a01b038216148061050857506105088133610295565b61057a5760405162461bcd60e51b815260206004820152603d60248201527f4552433732313a20617070726f76652063616c6c6572206973206e6f7420746f60448201527f6b656e206f776e6572206f7220617070726f76656420666f7220616c6c0000006064820152608401610386565b6105848383610bb2565b505050565b6105933382610c20565b6105af5760405162461bcd60e51b81526004016103869061171d565b610584838383610c9f565b6105848383836040518060200160405280600081525061093e565b6000818152600260205260408120546001600160a01b03168061030f5760405162461bcd60e51b8152602060048201526018602482015277115490cdcc8c4e881a5b9d985b1a59081d1bdad95b88125160421b6044820152606401610386565b60006001600160a01b03821661069f5760405162461bcd60e51b815260206004820152602960248201527f4552433732313a2061646472657373207a65726f206973206e6f7420612076616044820152683634b21037bbb732b960b91b6064820152608401610386565b506001600160a01b031660009081526003602052604090205490565b604051630b91eaf960e01b81523360048201526000907f00000000000000000000000000000000000000000000000000000000000000006001600160a01b031690630b91eaf990602401602060405180830381865afa158015610722573d6000803e3d6000fd5b505050506040513d601f19601f82011682018060405250810190610746919061176a565b6107625760405162461bcd60e51b815260040161038690611787565b8251602080850151604080516001600160a01b0394851681529184169282019290925291841682820152517f434ca30d6535ee3e62fafdfb0997d39bd9df9de67201e6633167c3e5d2d5dbb09181900360600190a160068054600091826107c8836117f5565b9190505590506107d88382610e03565b9392505050565b6060600180546103ca906116e3565b6107f9338383610e1d565b5050565b604051630b91eaf960e01b81523360048201527f00000000000000000000000000000000000000000000000000000000000000006001600160a01b031690630b91eaf990602401602060405180830381865afa158015610861573d6000803e3d6000fd5b505050506040513d601f19601f82011682018060405250810190610885919061176a565b6108a15760405162461bcd60e51b815260040161038690611787565b805160208201516040517f4ee171bc2a0548d324eb195b5c98f36737f5c0acb3fb7caaa422cc98c77f20a4926108f0928683526001600160a01b03918216602084015216604082015260600190565b60405180910390a16000918252600760209081526040909220815181546001600160a01b039182166001600160a01b0319918216178355929093015160019091018054919093169116179055565b6109483383610c20565b6109645760405162461bcd60e51b81526004016103869061171d565b61097084848484610eeb565b50505050565b606061098182610b50565b60006109b46040805180820190915260148152736d6574617365727669636520757269206865726560601b602082015290565b905060008151116109d457604051806020016040528060008152506107d8565b806109de84610f1e565b6040516020016109ef92919061181c565b6040516020818303038152906040529392505050565b604051630b91eaf960e01b81523360048201527f00000000000000000000000000000000000000000000000000000000000000006001600160a01b031690630b91eaf990602401602060405180830381865afa158015610a69573d6000803e3d6000fd5b505050506040513d601f19601f82011682018060405250810190610a8d919061176a565b610aa95760405162461bcd60e51b815260040161038690611787565b6000828152600760205260409020600101546001600160a01b03828116911614610b235760405162461bcd60e51b815260206004820152602560248201527f4f6e6c792074686520636c61696d65652063616e207769746864726177206120604482015264636c61696d60d81b6064820152608401610386565b50600090815260076020526040902080546001600160a01b03199081168255600190910180549091169055565b6000818152600260205260409020546001600160a01b0316610baf5760405162461bcd60e51b8152602060048201526018602482015277115490cdcc8c4e881a5b9d985b1a59081d1bdad95b88125160421b6044820152606401610386565b50565b600081815260046020526040902080546001600160a01b0319166001600160a01b0384169081179091558190610be7826105d5565b6001600160a01b03167f8c5be1e5ebec7d5bd14f71427d1e84f3dd0314c0f7b2291e5b200ac8c7c3b92560405160405180910390a45050565b600080610c2c836105d5565b9050806001600160a01b0316846001600160a01b03161480610c7357506001600160a01b0380821660009081526005602090815260408083209388168352929052205460ff165b80610c975750836001600160a01b0316610c8c8461044d565b6001600160a01b0316145b949350505050565b826001600160a01b0316610cb2826105d5565b6001600160a01b031614610cd85760405162461bcd60e51b81526004016103869061184b565b6001600160a01b038216610d3a5760405162461bcd60e51b8152602060048201526024808201527f4552433732313a207472616e7366657220746f20746865207a65726f206164646044820152637265737360e01b6064820152608401610386565b826001600160a01b0316610d4d826105d5565b6001600160a01b031614610d735760405162461bcd60e51b81526004016103869061184b565b600081815260046020908152604080832080546001600160a01b03199081169091556001600160a01b0387811680865260038552838620805460001901905590871680865283862080546001019055868652600290945282852080549092168417909155905184937fddf252ad1be2c89b69c2b068fc378daa952ba7f163c4a11628f55a4df523b3ef91a4505050565b6107f9828260405180602001604052806000815250610fb1565b816001600160a01b0316836001600160a01b031603610e7e5760405162461bcd60e51b815260206004820152601960248201527f4552433732313a20617070726f766520746f2063616c6c6572000000000000006044820152606401610386565b6001600160a01b03838116600081815260056020908152604080832094871680845294825291829020805460ff191686151590811790915591519182527f17307eab39ab6107e8899845ad3d59bd9653f200f220920489ca2b5937696c31910160405180910390a3505050565b610ef6848484610c9f565b610f0284848484610fe4565b6109705760405162461bcd60e51b815260040161038690611890565b60606000610f2b836110e5565b600101905060008167ffffffffffffffff811115610f4b57610f4b611494565b6040519080825280601f01601f191660200182016040528015610f75576020820181803683370190505b5090508181016020015b600019016f181899199a1a9b1b9c1cb0b131b232b360811b600a86061a8153600a8504945084610f7f57509392505050565b610fbb83836111bd565b610fc86000848484610fe4565b6105845760405162461bcd60e51b815260040161038690611890565b60006001600160a01b0384163b156110da57604051630a85bd0160e11b81526001600160a01b0385169063150b7a02906110289033908990889088906004016118e2565b6020604051808303816000875af1925050508015611063575060408051601f3d908101601f191682019092526110609181019061191f565b60015b6110c0573d808015611091576040519150601f19603f3d011682016040523d82523d6000602084013e611096565b606091505b5080516000036110b85760405162461bcd60e51b815260040161038690611890565b805181602001fd5b6001600160e01b031916630a85bd0160e11b149050610c97565b506001949350505050565b60008072184f03e93ff9f4daa797ed6e38ed64bf6a1f0160401b83106111245772184f03e93ff9f4daa797ed6e38ed64bf6a1f0160401b830492506040015b6d04ee2d6d415b85acef81000000008310611150576d04ee2d6d415b85acef8100000000830492506020015b662386f26fc10000831061116e57662386f26fc10000830492506010015b6305f5e1008310611186576305f5e100830492506008015b612710831061119a57612710830492506004015b606483106111ac576064830492506002015b600a831061030f5760010192915050565b6001600160a01b0382166112135760405162461bcd60e51b815260206004820181905260248201527f4552433732313a206d696e7420746f20746865207a65726f20616464726573736044820152606401610386565b6000818152600260205260409020546001600160a01b0316156112785760405162461bcd60e51b815260206004820152601c60248201527f4552433732313a20746f6b656e20616c7265616479206d696e746564000000006044820152606401610386565b6000818152600260205260409020546001600160a01b0316156112dd5760405162461bcd60e51b815260206004820152601c60248201527f4552433732313a20746f6b656e20616c7265616479206d696e746564000000006044820152606401610386565b6001600160a01b038216600081815260036020908152604080832080546001019055848352600290915280822080546001600160a01b0319168417905551839291907fddf252ad1be2c89b69c2b068fc378daa952ba7f163c4a11628f55a4df523b3ef908290a45050565b6001600160e01b031981168114610baf57600080fd5b60006020828403121561137057600080fd5b81356107d881611348565b60006020828403121561138d57600080fd5b5035919050565b60005b838110156113af578181015183820152602001611397565b50506000910152565b600081518084526113d0816020860160208601611394565b601f01601f19169290920160200192915050565b6020815260006107d860208301846113b8565b80356001600160a01b038116811461140e57600080fd5b919050565b6000806040838503121561142657600080fd5b61142f836113f7565b946020939093013593505050565b60008060006060848603121561145257600080fd5b61145b846113f7565b9250611469602085016113f7565b9150604084013590509250925092565b60006020828403121561148b57600080fd5b6107d8826113f7565b634e487b7160e01b600052604160045260246000fd5b604051601f8201601f1916810167ffffffffffffffff811182821017156114d3576114d3611494565b604052919050565b6000604082840312156114ed57600080fd5b6040516040810181811067ffffffffffffffff8211171561151057611510611494565b60405290508061151f836113f7565b815261152d602084016113f7565b60208201525092915050565b6000806060838503121561154c57600080fd5b61155684846114db565b9150611564604084016113f7565b90509250929050565b8015158114610baf57600080fd5b6000806040838503121561158e57600080fd5b611597836113f7565b915060208301356115a78161156d565b809150509250929050565b600080606083850312156115c557600080fd5b8235915061156484602085016114db565b600080600080608085870312156115ec57600080fd5b6115f5856113f7565b935060206116048187016113f7565b935060408601359250606086013567ffffffffffffffff8082111561162857600080fd5b818801915088601f83011261163c57600080fd5b81358181111561164e5761164e611494565b611660601f8201601f191685016114aa565b9150808252898482850101111561167657600080fd5b808484018584013760008482840101525080935050505092959194509250565b600080604083850312156116a957600080fd5b82359150611564602084016113f7565b600080604083850312156116cc57600080fd5b6116d5836113f7565b9150611564602084016113f7565b600181811c908216806116f757607f821691505b60208210810361171757634e487b7160e01b600052602260045260246000fd5b50919050565b6020808252602d908201527f4552433732313a2063616c6c6572206973206e6f7420746f6b656e206f776e6560408201526c1c881bdc88185c1c1c9bdd9959609a1b606082015260800190565b60006020828403121561177c57600080fd5b81516107d88161156d565b60208082526048908201527f4f6e6c79206120726567697374657265642075736572206f6620612076616c6960408201527f6461746564206f7267616e697a6174696f6e2063616e20757365207468697320606082015267333ab731ba34b7b760c11b608082015260a00190565b60006001820161181557634e487b7160e01b600052601160045260246000fd5b5060010190565b6000835161182e818460208801611394565b835190830190611842818360208801611394565b01949350505050565b60208082526025908201527f4552433732313a207472616e736665722066726f6d20696e636f72726563742060408201526437bbb732b960d91b606082015260800190565b60208082526032908201527f4552433732313a207472616e7366657220746f206e6f6e20455243373231526560408201527131b2b4bb32b91034b6b83632b6b2b73a32b960711b606082015260800190565b6001600160a01b0385811682528416602082015260408101839052608060608201819052600090611915908301846113b8565b9695505050505050565b60006020828403121561193157600080fd5b81516107d88161134856fea264697066735822122013286dc0bf08dd1c338b2389879e100c4227d29d82df0dedcee289ed6b355c0164736f6c63430008110033",
  "devdoc": {
    "kind": "dev",
    "methods": {
      "approve(address,uint256)": {
        "details": "See {IERC721-approve}."
      },
      "balanceOf(address)": {
        "details": "See {IERC721-balanceOf}."
      },
      "getApproved(uint256)": {
        "details": "See {IERC721-getApproved}."
      },
      "isApprovedForAll(address,address)": {
        "details": "See {IERC721-isApprovedForAll}."
      },
      "name()": {
        "details": "See {IERC721Metadata-name}."
      },
      "ownerOf(uint256)": {
        "details": "See {IERC721-ownerOf}."
      },
      "safeTransferFrom(address,address,uint256)": {
        "details": "See {IERC721-safeTransferFrom}."
      },
      "safeTransferFrom(address,address,uint256,bytes)": {
        "details": "See {IERC721-safeTransferFrom}."
      },
      "setApprovalForAll(address,bool)": {
        "details": "See {IERC721-setApprovalForAll}."
      },
      "supportsInterface(bytes4)": {
        "details": "See {IERC165-supportsInterface}."
      },
      "symbol()": {
        "details": "See {IERC721Metadata-symbol}."
      },
      "tokenURI(uint256)": {
        "details": "See {IERC721Metadata-tokenURI}."
      },
      "transferFrom(address,address,uint256)": {
        "details": "See {IERC721-transferFrom}."
      }
    },
    "version": 1
  },
  "userdoc": {
    "kind": "user",
    "methods": {},
    "version": 1
  },
  "storageLayout": {
    "storage": [
      {
        "astId": 25,
        "contract": "contracts/Pet.sol:Pet",
        "label": "_name",
        "offset": 0,
        "slot": "0",
        "type": "t_string_storage"
      },
      {
        "astId": 27,
        "contract": "contracts/Pet.sol:Pet",
        "label": "_symbol",
        "offset": 0,
        "slot": "1",
        "type": "t_string_storage"
      },
      {
        "astId": 31,
        "contract": "contracts/Pet.sol:Pet",
        "label": "_owners",
        "offset": 0,
        "slot": "2",
        "type": "t_mapping(t_uint256,t_address)"
      },
      {
        "astId": 35,
        "contract": "contracts/Pet.sol:Pet",
        "label": "_balances",
        "offset": 0,
        "slot": "3",
        "type": "t_mapping(t_address,t_uint256)"
      },
      {
        "astId": 39,
        "contract": "contracts/Pet.sol:Pet",
        "label": "_tokenApprovals",
        "offset": 0,
        "slot": "4",
        "type": "t_mapping(t_uint256,t_address)"
      },
      {
        "astId": 45,
        "contract": "contracts/Pet.sol:Pet",
        "label": "_operatorApprovals",
        "offset": 0,
        "slot": "5",
        "type": "t_mapping(t_address,t_mapping(t_address,t_bool))"
      },
      {
        "astId": 3159,
        "contract": "contracts/Pet.sol:Pet",
        "label": "_nextTokenId",
        "offset": 0,
        "slot": "6",
        "type": "t_uint256"
      },
      {
        "astId": 3167,
        "contract": "contracts/Pet.sol:Pet",
        "label": "_foundClaimMap",
        "offset": 0,
        "slot": "7",
        "type": "t_mapping(t_uint256,t_struct(OrgAffilliation)3406_storage)"
      }
    ],
    "types": {
      "t_address": {
        "encoding": "inplace",
        "label": "address",
        "numberOfBytes": "20"
      },
      "t_bool": {
        "encoding": "inplace",
        "label": "bool",
        "numberOfBytes": "1"
      },
      "t_mapping(t_address,t_bool)": {
        "encoding": "mapping",
        "key": "t_address",
        "label": "mapping(address => bool)",
        "numberOfBytes": "32",
        "value": "t_bool"
      },
      "t_mapping(t_address,t_mapping(t_address,t_bool))": {
        "encoding": "mapping",
        "key": "t_address",
        "label": "mapping(address => mapping(address => bool))",
        "numberOfBytes": "32",
        "value": "t_mapping(t_address,t_bool)"
      },
      "t_mapping(t_address,t_uint256)": {
        "encoding": "mapping",
        "key": "t_address",
        "label": "mapping(address => uint256)",
        "numberOfBytes": "32",
        "value": "t_uint256"
      },
      "t_mapping(t_uint256,t_address)": {
        "encoding": "mapping",
        "key": "t_uint256",
        "label": "mapping(uint256 => address)",
        "numberOfBytes": "32",
        "value": "t_address"
      },
      "t_mapping(t_uint256,t_struct(OrgAffilliation)3406_storage)": {
        "encoding": "mapping",
        "key": "t_uint256",
        "label": "mapping(uint256 => struct OrgAffilliation)",
        "numberOfBytes": "32",
        "value": "t_struct(OrgAffilliation)3406_storage"
      },
      "t_string_storage": {
        "encoding": "bytes",
        "label": "string",
        "numberOfBytes": "32"
      },
      "t_struct(OrgAffilliation)3406_storage": {
        "encoding": "inplace",
        "label": "struct OrgAffilliation",
        "members": [
          {
            "astId": 3403,
            "contract": "contracts/Pet.sol:Pet",
            "label": "org",
            "offset": 0,
            "slot": "0",
            "type": "t_address"
          },
          {
            "astId": 3405,
            "contract": "contracts/Pet.sol:Pet",
            "label": "claimee",
            "offset": 0,
            "slot": "1",
            "type": "t_address"
          }
        ],
        "numberOfBytes": "64"
      },
      "t_uint256": {
        "encoding": "inplace",
        "label": "uint256",
        "numberOfBytes": "32"
      }
    }
  }
}